{
  "contractName": "Ticket",
  "abi": [
    {
      "constant": true,
      "inputs": [],
      "name": "_issued",
      "outputs": [
        {
          "name": "",
          "type": "uint256"
        }
      ],
      "payable": false,
      "stateMutability": "view",
      "type": "function"
    },
    {
      "constant": true,
      "inputs": [],
      "name": "_price",
      "outputs": [
        {
          "name": "",
          "type": "uint256"
        }
      ],
      "payable": false,
      "stateMutability": "view",
      "type": "function"
    },
    {
      "constant": true,
      "inputs": [],
      "name": "_issuer",
      "outputs": [
        {
          "name": "",
          "type": "string"
        }
      ],
      "payable": false,
      "stateMutability": "view",
      "type": "function"
    },
    {
      "constant": true,
      "inputs": [],
      "name": "_scenicName",
      "outputs": [
        {
          "name": "",
          "type": "string"
        }
      ],
      "payable": false,
      "stateMutability": "view",
      "type": "function"
    },
    {
      "constant": true,
      "inputs": [
        {
          "name": "",
          "type": "uint256"
        }
      ],
      "name": "_cTickets",
      "outputs": [
        {
          "name": "",
          "type": "string"
        }
      ],
      "payable": false,
      "stateMutability": "view",
      "type": "function"
    },
    {
      "constant": true,
      "inputs": [],
      "name": "_eDate",
      "outputs": [
        {
          "name": "",
          "type": "uint64"
        }
      ],
      "payable": false,
      "stateMutability": "view",
      "type": "function"
    },
    {
      "constant": true,
      "inputs": [],
      "name": "_total",
      "outputs": [
        {
          "name": "",
          "type": "uint256"
        }
      ],
      "payable": false,
      "stateMutability": "view",
      "type": "function"
    },
    {
      "constant": true,
      "inputs": [],
      "name": "_ticketId",
      "outputs": [
        {
          "name": "",
          "type": "string"
        }
      ],
      "payable": false,
      "stateMutability": "view",
      "type": "function"
    },
    {
      "constant": true,
      "inputs": [],
      "name": "_comment",
      "outputs": [
        {
          "name": "",
          "type": "string"
        }
      ],
      "payable": false,
      "stateMutability": "view",
      "type": "function"
    },
    {
      "constant": true,
      "inputs": [],
      "name": "_sDate",
      "outputs": [
        {
          "name": "",
          "type": "uint64"
        }
      ],
      "payable": false,
      "stateMutability": "view",
      "type": "function"
    },
    {
      "constant": true,
      "inputs": [],
      "name": "_scenicAddr",
      "outputs": [
        {
          "name": "",
          "type": "address"
        }
      ],
      "payable": false,
      "stateMutability": "view",
      "type": "function"
    },
    {
      "inputs": [
        {
          "name": "issuer",
          "type": "string"
        },
        {
          "name": "scenicName",
          "type": "string"
        },
        {
          "name": "scenicAddr",
          "type": "address"
        },
        {
          "name": "ticketId",
          "type": "string"
        },
        {
          "name": "price",
          "type": "uint256"
        },
        {
          "name": "total",
          "type": "uint256"
        },
        {
          "name": "sDate",
          "type": "uint64"
        },
        {
          "name": "eDate",
          "type": "uint64"
        },
        {
          "name": "comment",
          "type": "string"
        },
        {
          "name": "ticketDataAddr",
          "type": "address"
        }
      ],
      "payable": false,
      "stateMutability": "nonpayable",
      "type": "constructor"
    },
    {
      "constant": false,
      "inputs": [
        {
          "name": "issuer",
          "type": "string"
        },
        {
          "name": "scenicName",
          "type": "string"
        },
        {
          "name": "scenicAddr",
          "type": "address"
        },
        {
          "name": "price",
          "type": "uint256"
        },
        {
          "name": "total",
          "type": "uint256"
        },
        {
          "name": "sDate",
          "type": "uint64"
        },
        {
          "name": "eDate",
          "type": "uint64"
        },
        {
          "name": "comment",
          "type": "string"
        }
      ],
      "name": "_updateTicket",
      "outputs": [],
      "payable": false,
      "stateMutability": "nonpayable",
      "type": "function"
    },
    {
      "constant": false,
      "inputs": [
        {
          "name": "userAddr",
          "type": "address"
        },
        {
          "name": "cTicketIds",
          "type": "string[]"
        }
      ],
      "name": "_mintTicket",
      "outputs": [],
      "payable": false,
      "stateMutability": "nonpayable",
      "type": "function"
    },
    {
      "constant": false,
      "inputs": [
        {
          "name": "toUser",
          "type": "address"
        },
        {
          "name": "cTicketIds",
          "type": "string[]"
        },
        {
          "name": "transferPrice",
          "type": "uint256"
        }
      ],
      "name": "_transferTicket",
      "outputs": [],
      "payable": false,
      "stateMutability": "nonpayable",
      "type": "function"
    },
    {
      "constant": false,
      "inputs": [
        {
          "name": "cTicketIds",
          "type": "string[]"
        },
        {
          "name": "transferPrice",
          "type": "uint256"
        }
      ],
      "name": "_listTicket",
      "outputs": [],
      "payable": false,
      "stateMutability": "nonpayable",
      "type": "function"
    },
    {
      "constant": false,
      "inputs": [
        {
          "name": "cTicketIds",
          "type": "string[]"
        }
      ],
      "name": "_cancelSoldTicket",
      "outputs": [],
      "payable": false,
      "stateMutability": "nonpayable",
      "type": "function"
    },
    {
      "constant": false,
      "inputs": [
        {
          "name": "cTicketIds",
          "type": "string[]"
        },
        {
          "name": "state",
          "type": "uint256"
        }
      ],
      "name": "_acceptTicket",
      "outputs": [],
      "payable": false,
      "stateMutability": "nonpayable",
      "type": "function"
    },
    {
      "constant": false,
      "inputs": [
        {
          "name": "cTicketIds",
          "type": "string[]"
        }
      ],
      "name": "_buyTicketFromMarket",
      "outputs": [],
      "payable": false,
      "stateMutability": "nonpayable",
      "type": "function"
    },
    {
      "constant": false,
      "inputs": [
        {
          "name": "userAddr",
          "type": "address"
        },
        {
          "name": "cticketId",
          "type": "string"
        }
      ],
      "name": "_checkcTicket",
      "outputs": [],
      "payable": false,
      "stateMutability": "nonpayable",
      "type": "function"
    },
    {
      "constant": true,
      "inputs": [],
      "name": "_getTicketInfo",
      "outputs": [
        {
          "name": "issuer",
          "type": "string"
        },
        {
          "name": "scenicAddr",
          "type": "address"
        },
        {
          "name": "price",
          "type": "uint256"
        },
        {
          "name": "total",
          "type": "uint256"
        },
        {
          "name": "issued",
          "type": "uint256"
        },
        {
          "name": "sDate",
          "type": "uint64"
        },
        {
          "name": "eDate",
          "type": "uint64"
        }
      ],
      "payable": false,
      "stateMutability": "view",
      "type": "function"
    },
    {
      "constant": true,
      "inputs": [
        {
          "name": "cticketId",
          "type": "string"
        }
      ],
      "name": "_getcTicketInfo",
      "outputs": [
        {
          "name": "holder",
          "type": "address"
        },
        {
          "name": "state",
          "type": "uint256"
        }
      ],
      "payable": false,
      "stateMutability": "view",
      "type": "function"
    },
    {
      "constant": true,
      "inputs": [
        {
          "name": "cticketId",
          "type": "string"
        }
      ],
      "name": "_getcTicketTransferInfo",
      "outputs": [
        {
          "name": "toUser",
          "type": "address"
        },
        {
          "name": "transferPrice",
          "type": "uint256"
        },
        {
          "name": "transferState",
          "type": "uint256"
        }
      ],
      "payable": false,
      "stateMutability": "view",
      "type": "function"
    }
  ],
  "bytecode": "0x6000600d8190556001600e8190556002600f819055601092909255601155601255600360135560c0604052600460808190527f6d696e740000000000000000000000000000000000000000000000000000000060a09081526200006691601491906200026c565b5060408051808201909152600e8082527f4163636570745472616e736665720000000000000000000000000000000000006020909201918252620000ad916015916200026c565b5060408051808201909152600d8082527f42757946726f6d4d61726b6574000000000000000000000000000000000000006020909201918252620000f4916016916200026c565b506040805180820190915260048082527f757365640000000000000000000000000000000000000000000000000000000060209092019182526200013b916017916200026c565b503480156200014957600080fd5b5060405162002f4a38038062002f4a83398101806040526200016f91908101906200039e565b60008054600160a060020a031916321790558951620001969060029060208d01906200026c565b508851620001ac9060049060208c01906200026c565b5060038054600160a060020a031916600160a060020a038a161790558651620001dd9060059060208a01906200026c565b5060068690556007859055600980546001604060020a038581166801000000000000000002604060020a608060020a031991881667ffffffffffffffff19909316929092171617905581516200023b90600a9060208501906200026c565b5060018054600160a060020a031916600160a060020a03929092169190911790555062000585975050505050505050565b828054600181600116156101000203166002900490600052602060002090601f016020900481019282601f10620002af57805160ff1916838001178555620002df565b82800160010185558215620002df579182015b82811115620002df578251825591602001919060010190620002c2565b50620002ed929150620002f1565b5090565b6200030e91905b80821115620002ed5760008155600101620002f8565b90565b60006200031f82516200053a565b9392505050565b6000601f820183136200033857600080fd5b81516200034f620003498262000512565b620004eb565b915080825260208301602083018583830111156200036c57600080fd5b6200037983828462000552565b50505092915050565b60006200031f82516200030e565b60006200031f825162000546565b6000806000806000806000806000806101408b8d031215620003bf57600080fd5b8a516001604060020a03811115620003d657600080fd5b620003e48d828e0162000326565b9a505060208b01516001604060020a038111156200040157600080fd5b6200040f8d828e0162000326565b9950506040620004228d828e0162000311565b98505060608b01516001604060020a038111156200043f57600080fd5b6200044d8d828e0162000326565b9750506080620004608d828e0162000382565b96505060a0620004738d828e0162000382565b95505060c0620004868d828e0162000390565b94505060e0620004998d828e0162000390565b9350506101008b01516001604060020a03811115620004b757600080fd5b620004c58d828e0162000326565b925050610120620004d98d828e0162000311565b9150509295989b9194979a5092959850565b6040518181016001604060020a03811182821017156200050a57600080fd5b604052919050565b60006001604060020a038211156200052957600080fd5b506020601f91909101601f19160190565b600160a060020a031690565b6001604060020a031690565b60005b838110156200056f57818101518382015260200162000555565b838111156200057f576000848401525b50505050565b6129b580620005956000396000f30060806040526004361061010e5763ffffffff60e060020a6000350416630304b7a38114610113578063031a9f8114610135578063235b6ea1146101605780633429e35c1461017557806339c9c64814610197578063497f2fd3146101c55780635cd05e8c146101da5780636861e220146101fa578063762a92891461021a5780637a27da791461023c578063933942031461025157806397f2c99d14610280578063999f77f9146102a0578063ae3a02b6146102c0578063bc11f3a7146102e8578063c6a879d6146102fd578063c9965bc614610312578063d66d3b2414610332578063d88baafe14610347578063d9c762b014610367578063ed9aa39d14610387578063f3a49e95146103a7575b600080fd5b34801561011f57600080fd5b5061013361012e366004612274565b6103c9565b005b34801561014157600080fd5b5061014a610695565b6040516101579190612884565b60405180910390f35b34801561016c57600080fd5b5061014a61069b565b34801561018157600080fd5b5061018a6106a1565b604051610157919061272d565b3480156101a357600080fd5b506101b76101b23660046122bb565b61072c565b6040516101579291906126ea565b3480156101d157600080fd5b5061018a610818565b3480156101e657600080fd5b5061018a6101f53660046123e7565b610873565b34801561020657600080fd5b50610133610215366004612274565b6108e7565b34801561022657600080fd5b5061022f610d15565b6040516101579190612892565b34801561024857600080fd5b5061014a610d31565b34801561025d57600080fd5b5061027161026c3660046122bb565b610d37565b60405161015793929190612705565b34801561028c57600080fd5b5061013361029b36600461218a565b610e79565b3480156102ac57600080fd5b506101336102bb3660046121ef565b61113c565b3480156102cc57600080fd5b506102d5611471565b6040516101579796959493929190612787565b3480156102f457600080fd5b5061018a611552565b34801561030957600080fd5b5061018a6115ad565b34801561031e57600080fd5b5061013361032d366004612237565b611608565b34801561033e57600080fd5b5061022f611912565b34801561035357600080fd5b50610133610362366004612237565b611922565b34801561037357600080fd5b50610133610382366004612138565b611b77565b34801561039357600080fd5b506101336103a23660046122f0565b611ec3565b3480156103b357600080fd5b506103bc611fa8565b60405161015791906126d6565b600060605b835182101561068f5732600160a060020a0316600c85848151811015156103f157fe5b906020019060200201516040518082805190602001908083835b6020831061042a5780518252601f19909201916020918201910161040b565b518151600019602094850361010090810a919091019182169119929092161790915293909101958652604051958690030190942054600160a060020a039190041693909314925061049c9150505760405160e560020a62461bcd02815260040161049390612804565b60405180910390fd5b83828151811015156104aa57fe5b906020019060200201519050600e54600c826040518082805190602001908083835b602083106104eb5780518252601f1990920191602091820191016104cc565b51815160209384036101000a600019018019909216911617905292019485525060405193849003810184206001019490945550508251600092600c92859290918291908401908083835b602083106105545780518252601f199092019160209182019101610535565b51815160209384036101000a60001901801990921691161790529201948552506040519384900381018420600301805473ffffffffffffffffffffffffffffffffffffffff1916600160a060020a039690961695909517909455505082518592600c92859290918291908401908083835b602083106105e45780518252601f1990920191602091820191016105c5565b51815160209384036101000a6000190180199092169116179052920194855250604051938490038101842060020194909455505060115483519092600c92859290918291908401908083835b6020831061064f5780518252601f199092019160209182019101610630565b51815160209384036101000a60001901801990921691161790529201948552506040519384900301909220600401929092555050600191909101906103ce565b50505050565b60085481565b60065481565b6002805460408051602060018416156101000260001901909316849004601f810184900484028201840190925281815292918301828280156107245780601f106106f957610100808354040283529160200191610724565b820191906000526020600020905b81548152906001019060200180831161070757829003601f168201915b505050505081565b600080600c836040518082805190602001908083835b602083106107615780518252601f199092019160209182019101610742565b6001836020036101000a038019825116818451168082178552505050505050905001915050908152602001604051809103902060000160019054906101000a9004600160a060020a03169150600c836040518082805190602001908083835b602083106107df5780518252601f1990920191602091820191016107c0565b51815160209384036101000a60001901801990921691161790529201948552506040519384900301909220600101549395939450505050565b6004805460408051602060026001851615610100026000190190941693909304601f810184900484028201840190925281815292918301828280156107245780601f106106f957610100808354040283529160200191610724565b600b80548290811061088157fe5b600091825260209182902001805460408051601f60026000196101006001871615020190941693909304928301859004850281018501909152818152935090918301828280156107245780601f106106f957610100808354040283529160200191610724565b600060605b835182101561068f5732600160a060020a0316600c858481518110151561090f57fe5b906020019060200201516040518082805190602001908083835b602083106109485780518252601f199092019160209182019101610929565b51815160209384036101000a6000190180199092169116179052920194855250604051938490030190922060030154600160a060020a03169290921491506109a790505760405160e560020a62461bcd02815260040161049390612854565b601154600c85848151811015156109ba57fe5b906020019060200201516040518082805190602001908083835b602083106109f35780518252601f1990920191602091820191016109d4565b51815160209384036101000a6000190180199092169116179052920194855250604051938490030190922060040154929092149150610a4990505760405160e560020a62461bcd02815260040161049390612834565b8382815181101515610a5757fe5b9060200190602002015190508260001415610ca057600d54600c826040518082805190602001908083835b60208310610aa15780518252601f199092019160209182019101610a82565b51815160209384036101000a6000190180199092169116179052920194855250604051938490038101842060010194909455505082513292600c92859290918291908401908083835b60208310610b095780518252601f199092019160209182019101610aea565b6001836020036101000a038019825116818451168082178552505050505050905001915050908152602001604051809103902060000160016101000a815481600160a060020a030219169083600160a060020a03160217905550601254600c826040518082805190602001908083835b60208310610b985780518252601f199092019160209182019101610b79565b51815160209384036101000a600019018019909216911617905292019485525060405193849003810184206004019490945550506001548351600160a060020a0390911692638ce1b13f9285923292600c92859290918291908401908083835b60208310610c175780518252601f199092019160209182019101610bf8565b51815160209384036101000a6000190180199092169116179052920194855250604051938490030183206002015463ffffffff871660e060020a028452610c699594939092506015915060040161273e565b600060405180830381600087803b158015610c8357600080fd5b505af1158015610c97573d6000803e3d6000fd5b50505050610d0a565b601354600c826040518082805190602001908083835b60208310610cd55780518252601f199092019160209182019101610cb6565b51815160209384036101000a600019018019909216911617905292019485525060405193849003019092206004019290925550505b6001909101906108ec565b60095468010000000000000000900467ffffffffffffffff1681565b60075481565b6000806000600c846040518082805190602001908083835b60208310610d6e5780518252601f199092019160209182019101610d4f565b51815160209384036101000a60001901801990921691161790529201948552506040519384900381018420600301548851600160a060020a039091169750600c94899450925082918401908083835b60208310610ddc5780518252601f199092019160209182019101610dbd565b51815160209384036101000a60001901801990921691161790529201948552506040519384900381018420600201548851909650600c94899450925082918401908083835b60208310610e405780518252601f199092019160209182019101610e21565b51815160209384036101000a60001901801990921691161790529201948552506040519384900301909220600401549496939550505050565b600060605b83518210156111355732600160a060020a0316600c8584815181101515610ea157fe5b906020019060200201516040518082805190602001908083835b60208310610eda5780518252601f199092019160209182019101610ebb565b518151600019602094850361010090810a919091019182169119929092161790915293909101958652604051958690030190942054600160a060020a0391900416939093149250610f439150505760405160e560020a62461bcd02815260040161049390612804565b8382815181101515610f5157fe5b906020019060200201519050600e54600c826040518082805190602001908083835b60208310610f925780518252601f199092019160209182019101610f73565b51815160209384036101000a6000190180199092169116179052920194855250604051938490038101842060010194909455505082518792600c92859290918291908401908083835b60208310610ffa5780518252601f199092019160209182019101610fdb565b51815160209384036101000a60001901801990921691161790529201948552506040519384900381018420600301805473ffffffffffffffffffffffffffffffffffffffff1916600160a060020a039690961695909517909455505082518592600c92859290918291908401908083835b6020831061108a5780518252601f19909201916020918201910161106b565b51815160209384036101000a6000190180199092169116179052920194855250604051938490038101842060020194909455505060115483519092600c92859290918291908401908083835b602083106110f55780518252601f1990920191602091820191016110d6565b51815160209384036101000a6000190180199092169116179052920194855250604051938490030190922060040192909255505060019190910190610e7e565b5050505050565b600082600160a060020a0316600c836040518082805190602001908083835b6020831061117a5780518252601f19909201916020918201910161115b565b518151600019602094850361010090810a919091019182169119929092161790915293909101958652604051958690030190942054600160a060020a03919004169390931492506111e39150505760405160e560020a62461bcd02815260040161049390612804565b600d54600c836040518082805190602001908083835b602083106112185780518252601f1990920191602091820191016111f9565b51815160209384036101000a600019018019909216911617905292019485525060405193849003019092206001015492909214915061126e90505760405160e560020a62461bcd02815260040161049390612844565b600354600160a060020a0316321461129b5760405160e560020a62461bcd02815260040161049390612814565b600f54600c836040518082805190602001908083835b602083106112d05780518252601f1990920191602091820191016112b1565b6001836020036101000a038019825116818451168082178552505050505050905001915050908152602001604051809103902060010181905550601054600c836040518082805190602001908083835b6020831061133f5780518252601f199092019160209182019101611320565b51815160209384036101000a600019018019909216911617905292019485525060405193849003019092206004015492909214159150611384905057506006546113ea565b600c826040518082805190602001908083835b602083106113b65780518252601f199092019160209182019101611397565b51815160209384036101000a6000190180199092169116179052920194855250604051938490030190922060020154925050505b6001546040517f8ce1b13f000000000000000000000000000000000000000000000000000000008152600160a060020a0390911690638ce1b13f9061143a9085903290869060179060040161273e565b600060405180830381600087803b15801561145457600080fd5b505af1158015611468573d6000803e3d6000fd5b50505050505050565b60028054604080516020601f60001961010060018716150201909416859004938401819004810282018101909252828152606093600093849384938493849384938301828280156115035780601f106114d857610100808354040283529160200191611503565b820191906000526020600020905b8154815290600101906020018083116114e657829003601f168201915b5050600354600654600754600854600954979f600160a060020a039094169e50919c509a50985067ffffffffffffffff8086169850680100000000000000009095049094169550929350505050565b6005805460408051602060026001851615610100026000190190941693909304601f810184900484028201840190925281815292918301828280156107245780601f106106f957610100808354040283529160200191610724565b600a805460408051602060026001851615610100026000190190941693909304601f810184900484028201840190925281815292918301828280156107245780601f106106f957610100808354040283529160200191610724565b600060605b825182101561190d57601154600c848481518110151561162957fe5b906020019060200201516040518082805190602001908083835b602083106116625780518252601f199092019160209182019101611643565b51815160209384036101000a60001901801990921691161790529201948552506040519384900301909220600401549290921491506116b890505760405160e560020a62461bcd02815260040161049390612834565b82828151811015156116c657fe5b906020019060200201519050600d54600c826040518082805190602001908083835b602083106117075780518252601f1990920191602091820191016116e8565b51815160209384036101000a6000190180199092169116179052920194855250604051938490038101842060010194909455505082513292600c92859290918291908401908083835b6020831061176f5780518252601f199092019160209182019101611750565b6001836020036101000a038019825116818451168082178552505050505050905001915050908152602001604051809103902060000160016101000a815481600160a060020a030219169083600160a060020a03160217905550601254600c826040518082805190602001908083835b602083106117fe5780518252601f1990920191602091820191016117df565b51815160209384036101000a600019018019909216911617905292019485525060405193849003810184206004019490945550506001548351600160a060020a0390911692638ce1b13f9285923292600c92859290918291908401908083835b6020831061187d5780518252601f19909201916020918201910161185e565b51815160209384036101000a6000190180199092169116179052920194855250604051938490030183206002015463ffffffff871660e060020a0284526118cf9594939092506016915060040161273e565b600060405180830381600087803b1580156118e957600080fd5b505af11580156118fd573d6000803e3d6000fd5b50506001909301925061160d9050565b505050565b60095467ffffffffffffffff1681565b600060605b825182101561190d5732600160a060020a0316600c848481518110151561194a57fe5b906020019060200201516040518082805190602001908083835b602083106119835780518252601f199092019160209182019101611964565b518151600019602094850361010090810a919091019182169119929092161790915293909101958652604051958690030190942054600160a060020a03919004169390931492506119ec9150505760405160e560020a62461bcd02815260040161049390612804565b82828151811015156119fa57fe5b906020019060200201519050600d54600c826040518082805190602001908083835b60208310611a3b5780518252601f199092019160209182019101611a1c565b51815160209384036101000a600019018019909216911617905292019485525060405193849003810184206001019490945550508251600092600c92859290918291908401908083835b60208310611aa45780518252601f199092019160209182019101611a85565b51815160209384036101000a60001901801990921691161790529201948552506040519384900381018420600301805473ffffffffffffffffffffffffffffffffffffffff1916600160a060020a039690961695909517909455505060105483519092600c92859290918291908401908083835b60208310611b375780518252601f199092019160209182019101611b18565b51815160209384036101000a6000190180199092169116179052920194855250604051938490030190922060040192909255505060019190910190611927565b6000606060075483516008540111151515611ba75760405160e560020a62461bcd02815260040161049390612874565b600054600160a060020a03163214611bd45760405160e560020a62461bcd02815260040161049390612824565b600091505b825182101561068f578282815181101515611bf057fe5b906020019060200201519050600c816040518082805190602001908083835b60208310611c2e5780518252601f199092019160209182019101611c0f565b51815160209384036101000a600019018019909216911617905292019485525060405193849003019092205460ff16159150611c8190505760405160e560020a62461bcd02815260040161049390612864565b600b8054600181018083556000929092528251611cc5917f0175b7a638427703f0dbe7bb9bbf987a2551717b34e79f33b5b1008d1fa01db901906020850190611fb7565b50506001600c826040518082805190602001908083835b60208310611cfb5780518252601f199092019160209182019101611cdc565b51815160209384036101000a60001901801990921691161790529201948552506040519384900381018420805460ff191695151595909517909455505082518692600c92859290918291908401908083835b60208310611d6c5780518252601f199092019160209182019101611d4d565b6001836020036101000a038019825116818451168082178552505050505050905001915050908152602001604051809103902060000160016101000a815481600160a060020a030219169083600160a060020a03160217905550600d54600c826040518082805190602001908083835b60208310611dfb5780518252601f199092019160209182019101611ddc565b51815160209384036101000a6000190180199092169116179052920194855250604051938490030183206001908101949094555050600880548301905590546006547f8ce1b13f000000000000000000000000000000000000000000000000000000008352600160a060020a0390911691638ce1b13f91611e85918591899160149060040161273e565b600060405180830381600087803b158015611e9f57600080fd5b505af1158015611eb3573d6000803e3d6000fd5b505060019093019250611bd99050565b6008546007541015611eea5760405160e560020a62461bcd028152600401610493906127f4565b8751611efd9060029060208b0190611fb7565b508651611f119060049060208a0190611fb7565b506003805473ffffffffffffffffffffffffffffffffffffffff1916600160a060020a038816179055600685905560078490556009805467ffffffffffffffff191667ffffffffffffffff858116919091176fffffffffffffffff0000000000000000191668010000000000000000918516919091021790558051611f9d90600a906020840190611fb7565b505050505050505050565b600354600160a060020a031681565b828054600181600116156101000203166002900490600052602060002090601f016020900481019282601f10611ff857805160ff1916838001178555612025565b82800160010185558215612025579182015b8281111561202557825182559160200191906001019061200a565b50612031929150612035565b5090565b61204f91905b80821115612031576000815560010161203b565b90565b600061205e8235612920565b9392505050565b6000601f8201831361207657600080fd5b8135612089612084826128c7565b6128a0565b81815260209384019390925082018360005b838110156120c757813586016120b188826120d1565b845250602092830192919091019060010161209b565b5050505092915050565b6000601f820183136120e257600080fd5b81356120f0612084826128e8565b9150808252602083016020830185838301111561210c57600080fd5b612117838284612939565b50505092915050565b600061205e823561204f565b600061205e823561292c565b6000806040838503121561214b57600080fd5b60006121578585612052565b925050602083013567ffffffffffffffff81111561217457600080fd5b61218085828601612065565b9150509250929050565b60008060006060848603121561219f57600080fd5b60006121ab8686612052565b935050602084013567ffffffffffffffff8111156121c857600080fd5b6121d486828701612065565b92505060406121e586828701612120565b9150509250925092565b6000806040838503121561220257600080fd5b600061220e8585612052565b925050602083013567ffffffffffffffff81111561222b57600080fd5b612180858286016120d1565b60006020828403121561224957600080fd5b813567ffffffffffffffff81111561226057600080fd5b61226c84828501612065565b949350505050565b6000806040838503121561228757600080fd5b823567ffffffffffffffff81111561229e57600080fd5b6122aa85828601612065565b925050602061218085828601612120565b6000602082840312156122cd57600080fd5b813567ffffffffffffffff8111156122e457600080fd5b61226c848285016120d1565b600080600080600080600080610100898b03121561230d57600080fd5b883567ffffffffffffffff81111561232457600080fd5b6123308b828c016120d1565b985050602089013567ffffffffffffffff81111561234d57600080fd5b6123598b828c016120d1565b975050604061236a8b828c01612052565b965050606061237b8b828c01612120565b955050608061238c8b828c01612120565b94505060a061239d8b828c0161212c565b93505060c06123ae8b828c0161212c565b92505060e089013567ffffffffffffffff8111156123cb57600080fd5b6123d78b828c016120d1565b9150509295985092959890939650565b6000602082840312156123f957600080fd5b600061226c8484612120565b61240e81612920565b82525050565b600061241f8261291c565b808452612433816020860160208601612945565b61243c81612971565b9093016020019392505050565b6000815460018116600081146124665760018114612484576124c0565b60028204607f16855260ff19821660208601526040850192506124c0565b6002820480865260208601955061249a85612910565b60005b828110156124b95781548882015260019091019060200161249d565b8701945050505b505092915050565b601981527f746f74616c207469636b6574206e756d626572206572726f7200000000000000602082015260400190565b602681527f746869732075736572206973206e6f7420686f6c646572206f6620737563682060208201527f7469636b65740000000000000000000000000000000000000000000000000000604082015260600190565b601c81527f6f6e6c79207363656e69632063616e20636865636b207469636b657400000000602082015260400190565b602381527f6f6e6c792069737375657220636f6d70616e792063616e206d696e742074696360208201527f6b65740000000000000000000000000000000000000000000000000000000000604082015260600190565b601f81527f74686973207469636b657420697320756e61626c6520746f2061636365707400602082015260400190565b601c81527f74686973207469636b657420697320756e61626c6520746f2075736500000000602082015260400190565b601d81527f74686973207573657220697320756e61626c6520746f20616363706574000000602082015260400190565b601c81527f7468697320635469636b657420616c7265616479206d696e7474656400000000602082015260400190565b600e81527f6e6f207469636b6574206c656674000000000000000000000000000000000000602082015260400190565b61240e8161204f565b61240e8161292c565b602081016126e48284612405565b92915050565b604081016126f88285612405565b61205e60208301846126c4565b606081016127138286612405565b61272060208301856126c4565b61226c60408301846126c4565b6020808252810161205e8184612414565b6080808252810161274f8187612414565b905061275e6020830186612405565b61276b60408301856126c4565b818103606083015261277d8184612449565b9695505050505050565b60e08082528101612798818a612414565b90506127a76020830189612405565b6127b460408301886126c4565b6127c160608301876126c4565b6127ce60808301866126c4565b6127db60a08301856126cd565b6127e860c08301846126cd565b98975050505050505050565b602080825281016126e4816124c8565b602080825281016126e4816124f8565b602080825281016126e48161254e565b602080825281016126e48161257e565b602080825281016126e4816125d4565b602080825281016126e481612604565b602080825281016126e481612634565b602080825281016126e481612664565b602080825281016126e481612694565b602081016126e482846126c4565b602081016126e482846126cd565b60405181810167ffffffffffffffff811182821017156128bf57600080fd5b604052919050565b600067ffffffffffffffff8211156128de57600080fd5b5060209081020190565b600067ffffffffffffffff8211156128ff57600080fd5b506020601f91909101601f19160190565b60009081526020902090565b5190565b600160a060020a031690565b67ffffffffffffffff1690565b82818337506000910152565b60005b83811015612960578181015183820152602001612948565b8381111561068f5750506000910152565b601f01601f1916905600a265627a7a72305820158b3568ceb6cbb38d7184a2549e24f9fa407fc755844ee113582e1ae6c844596c6578706572696d656e74616cf50037",
  "source": "pragma solidity >=0.4.21 <0.7.0;\r\npragma experimental ABIEncoderV2;\r\n\r\nimport './TicketData.sol';\r\n\r\ncontract Ticket {\r\n    address private _admin;\r\n    TicketData private _ticketData;\r\n    string public _issuer;\r\n    address public _scenicAddr;\r\n    string public _scenicName;\r\n    string public _ticketId;\r\n    uint public _price;\r\n    uint public _total;\r\n    uint public _issued;\r\n    uint64 public _sDate;\r\n    uint64 public _eDate;\r\n    string public _comment;\r\n    string[] public _cTickets;\r\n    mapping(string => cTicketInfo) _cTicketList;\r\n\r\n    uint TICKET_NORMAL = 0;\r\n    uint TICKET_LOCKED = 1;\r\n    uint TICKET_USED = 2;\r\n    uint TRANSFER_NORMAL = 0;\r\n    uint TRANSFER_PROCESS = 1;\r\n    uint TRANSFER_ACCEPTED = 2;\r\n    uint TRANSFER_REFUSED = 3;\r\n\r\n    string EMIT_MINT = \"mint\";\r\n    string EMIT_ACCEPT = \"AcceptTransfer\";\r\n    string EMIT_BUY = \"BuyFromMarket\";\r\n    string EMIT_USED = \"used\";\r\n\r\n    struct cTicketInfo {\r\n        bool exist;\r\n        address holder;\r\n        uint state;\r\n        transferInfo tInfo;\r\n        string comment;\r\n    }\r\n\r\n    struct transferInfo {\r\n        uint256 transferPrice;\r\n        address toUser;\r\n        uint state;\r\n    }\r\n\r\n    constructor(string memory issuer, string scenicName, address scenicAddr, string ticketId, uint price, uint total, uint64 sDate, uint64 eDate, string memory comment, address ticketDataAddr) public {\r\n        _admin = tx.origin;\r\n        _issuer = issuer;\r\n        _scenicName = scenicName;\r\n        _scenicAddr = scenicAddr;\r\n        _ticketId = ticketId;\r\n        _price = price;\r\n        _total = total;\r\n        _sDate = sDate;\r\n        _eDate = eDate;\r\n        _comment = comment;\r\n        _ticketData = TicketData(ticketDataAddr);\r\n    }\r\n\r\n    function _updateTicket(string memory issuer, string scenicName, address scenicAddr, uint price, uint total, uint64 sDate, uint64 eDate, string memory comment) public {\r\n        require( _total >= _issued, \"total ticket number error\");\r\n        _issuer = issuer;\r\n        _scenicName = scenicName;\r\n        _scenicAddr = scenicAddr;\r\n        _price = price;\r\n        _total = total;\r\n        _sDate = sDate;\r\n        _eDate = eDate;\r\n        _comment = comment;\r\n    }\r\n\r\n    function _mintTicket(address userAddr, string[] cTicketIds) public {\r\n        require((_issued + cTicketIds.length <= _total), \"no ticket left\");\r\n        require((_admin == tx.origin), \"only issuer company can mint ticket\");\r\n        for( uint i=0; i < cTicketIds.length; i++){\r\n            string memory cTicketId = cTicketIds[i];\r\n            require((_cTicketList[cTicketId].exist == false), \"this cTicket already mintted\");\r\n            _cTickets.push(cTicketId);\r\n            _cTicketList[cTicketId].exist = true;\r\n            _cTicketList[cTicketId].holder = userAddr;\r\n            _cTicketList[cTicketId].state = TICKET_NORMAL;\r\n            _issued ++;\r\n            _ticketData._TicketTrace(cTicketId, userAddr, _price, EMIT_MINT);\r\n        }\r\n    }\r\n\r\n    function _transferTicket(address toUser, string[] cTicketIds, uint transferPrice) public {\r\n        for(uint i=0; i < cTicketIds.length; i++){\r\n            require((_cTicketList[cTicketIds[i]].holder == tx.origin), \"this user is not holder of such ticket\");\r\n            string memory cTicketId = cTicketIds[i];\r\n            _cTicketList[cTicketId].state = TICKET_LOCKED;\r\n            _cTicketList[cTicketId].tInfo.toUser = toUser;\r\n            _cTicketList[cTicketId].tInfo.transferPrice = transferPrice;\r\n            _cTicketList[cTicketId].tInfo.state = TRANSFER_PROCESS;\r\n        }\r\n    }\r\n\r\n    function _listTicket(string[] cTicketIds, uint transferPrice) public {\r\n        for(uint i=0; i < cTicketIds.length; i++){\r\n            require((_cTicketList[cTicketIds[i]].holder == tx.origin), \"this user is not holder of such ticket\");\r\n            string memory cTicketId = cTicketIds[i];\r\n            _cTicketList[cTicketId].state = TICKET_LOCKED;\r\n            _cTicketList[cTicketId].tInfo.toUser = address(0);\r\n            _cTicketList[cTicketId].tInfo.transferPrice = transferPrice;\r\n            _cTicketList[cTicketId].tInfo.state = TRANSFER_PROCESS;\r\n        }\r\n    }\r\n\r\n    function _cancelSoldTicket(string[] cTicketIds) public {\r\n        for(uint i=0; i < cTicketIds.length; i++){\r\n            require((_cTicketList[cTicketIds[i]].holder == tx.origin), \"this user is not holder of such ticket\");\r\n            string memory cTicketId = cTicketIds[i];\r\n            _cTicketList[cTicketId].state = TICKET_NORMAL;\r\n            _cTicketList[cTicketId].tInfo.toUser = address(0);\r\n            _cTicketList[cTicketId].tInfo.state = TRANSFER_NORMAL;\r\n        }\r\n\r\n    }\r\n\r\n    function _acceptTicket(string[] cTicketIds, uint state) public {\r\n        for(uint i=0; i < cTicketIds.length; i++){\r\n            require((_cTicketList[cTicketIds[i]].tInfo.toUser == tx.origin), \"this user is unable to accpet\");\r\n            require((_cTicketList[cTicketIds[i]].tInfo.state == TRANSFER_PROCESS), \"this ticket is unable to accept\");\r\n            string memory cTicketId = cTicketIds[i];\r\n            if(state == 0){\r\n                _cTicketList[cTicketId].state = TICKET_NORMAL;\r\n                _cTicketList[cTicketId].holder = tx.origin;\r\n                _cTicketList[cTicketId].tInfo.state = TRANSFER_ACCEPTED;\r\n                _ticketData._TicketTrace(cTicketId, tx.origin, _cTicketList[cTicketId].tInfo.transferPrice, EMIT_ACCEPT);\r\n            }else {\r\n                _cTicketList[cTicketId].tInfo.state = TRANSFER_REFUSED;\r\n            }\r\n        }\r\n    }\r\n\r\n    function _buyTicketFromMarket(string[] cTicketIds) public {\r\n        for(uint i=0; i < cTicketIds.length; i++){\r\n            require((_cTicketList[cTicketIds[i]].tInfo.state == TRANSFER_PROCESS), \"this ticket is unable to accept\");\r\n            string memory cTicketId = cTicketIds[i];\r\n            _cTicketList[cTicketId].state = TICKET_NORMAL;\r\n            _cTicketList[cTicketId].holder = tx.origin;\r\n            _cTicketList[cTicketId].tInfo.state = TRANSFER_ACCEPTED;\r\n            _ticketData._TicketTrace(cTicketId, tx.origin, _cTicketList[cTicketId].tInfo.transferPrice, EMIT_BUY);\r\n        }\r\n    }\r\n\r\n    function _checkcTicket(address userAddr,string cticketId) public {\r\n        require((_cTicketList[cticketId].holder == userAddr), \"this user is not holder of such ticket\");\r\n        require((_cTicketList[cticketId].state == TICKET_NORMAL), \"this ticket is unable to use\");\r\n        require((_scenicAddr == tx.origin),\"only scenic can check ticket\");\r\n        _cTicketList[cticketId].state = TICKET_USED;\r\n        uint price;\r\n        if(_cTicketList[cticketId].tInfo.state == TRANSFER_NORMAL){\r\n            price = _price;\r\n        } else {\r\n            price = _cTicketList[cticketId].tInfo.transferPrice;\r\n        }\r\n        _ticketData._TicketTrace(cticketId, tx.origin, price, EMIT_USED);\r\n    }\r\n\r\n    function _getTicketInfo() public view returns (string memory issuer, address scenicAddr, uint price, uint total, uint issued, uint64 sDate, uint64 eDate) {\r\n        issuer = _issuer;\r\n        scenicAddr = _scenicAddr;\r\n        price = _price;\r\n        total = _total;\r\n        issued = _issued;\r\n        sDate = _sDate;\r\n        eDate = _eDate;\r\n    }\r\n    \r\n    function _getcTicketInfo(string cticketId) public view returns (address holder, uint state) {\r\n        holder = _cTicketList[cticketId].holder;\r\n        state = _cTicketList[cticketId].state;\r\n    }\r\n    \r\n    function _getcTicketTransferInfo(string cticketId) public view returns (address toUser, uint transferPrice, uint256 transferState) {\r\n        toUser = _cTicketList[cticketId].tInfo.toUser;\r\n        transferPrice = _cTicketList[cticketId].tInfo.transferPrice;\r\n        transferState = _cTicketList[cticketId].tInfo.state;\r\n    }\r\n}",
  "sourcePath": "D:\\GRGChainWork\\02_Project_TicketChain\\TicketContract\\bare-box\\contracts\\Ticket.sol",
  "compiler": {
    "name": "solc",
    "version": "0.4.26+commit.4563c3fc.Emscripten.clang"
  },
  "schemaVersion": "3.2.0",
  "updatedAt": "2020-11-12T00:39:36.550Z",
  "devdoc": {
    "methods": {}
  },
  "userdoc": {
    "methods": {}
  }
}