{
  "contractName": "TicketManager",
  "abi": [
    {
      "inputs": [
        {
          "name": "userManagerAddr",
          "type": "address"
        },
        {
          "name": "ticketDataAddr",
          "type": "address"
        }
      ],
      "payable": false,
      "stateMutability": "nonpayable",
      "type": "constructor"
    },
    {
      "anonymous": false,
      "inputs": [
        {
          "indexed": true,
          "name": "companyAddr",
          "type": "address"
        },
        {
          "indexed": true,
          "name": "ticketAddr",
          "type": "address"
        },
        {
          "indexed": false,
          "name": "ticketId",
          "type": "string"
        }
      ],
      "name": "TicketIssue",
      "type": "event"
    },
    {
      "anonymous": false,
      "inputs": [
        {
          "indexed": false,
          "name": "ticketId",
          "type": "string"
        },
        {
          "indexed": false,
          "name": "cTicketId",
          "type": "string[]"
        },
        {
          "indexed": true,
          "name": "userAddr",
          "type": "address"
        }
      ],
      "name": "TicketMint",
      "type": "event"
    },
    {
      "anonymous": false,
      "inputs": [
        {
          "indexed": false,
          "name": "cTicketId",
          "type": "string[]"
        },
        {
          "indexed": true,
          "name": "fromUser",
          "type": "address"
        },
        {
          "indexed": true,
          "name": "toUser",
          "type": "address"
        },
        {
          "indexed": false,
          "name": "transferPrice",
          "type": "uint256"
        }
      ],
      "name": "TicketTransfer",
      "type": "event"
    },
    {
      "anonymous": false,
      "inputs": [
        {
          "indexed": false,
          "name": "cTicketId",
          "type": "string"
        },
        {
          "indexed": true,
          "name": "scenicAddr",
          "type": "address"
        },
        {
          "indexed": true,
          "name": "userAddr",
          "type": "address"
        }
      ],
      "name": "TicketCheck",
      "type": "event"
    },
    {
      "constant": false,
      "inputs": [
        {
          "name": "scenicName",
          "type": "string"
        },
        {
          "name": "scenicAddr",
          "type": "address"
        },
        {
          "name": "ticketId",
          "type": "string"
        },
        {
          "name": "price",
          "type": "uint256"
        },
        {
          "name": "total",
          "type": "uint256"
        },
        {
          "name": "sDate",
          "type": "uint64"
        },
        {
          "name": "eDate",
          "type": "uint64"
        },
        {
          "name": "comment",
          "type": "string"
        }
      ],
      "name": "issueTicket",
      "outputs": [],
      "payable": false,
      "stateMutability": "nonpayable",
      "type": "function"
    },
    {
      "constant": false,
      "inputs": [
        {
          "name": "scenicName",
          "type": "string"
        },
        {
          "name": "scenicAddr",
          "type": "address"
        },
        {
          "name": "ticketId",
          "type": "string"
        },
        {
          "name": "price",
          "type": "uint256"
        },
        {
          "name": "total",
          "type": "uint256"
        },
        {
          "name": "sDate",
          "type": "uint64"
        },
        {
          "name": "eDate",
          "type": "uint64"
        },
        {
          "name": "comment",
          "type": "string"
        }
      ],
      "name": "updateTicket",
      "outputs": [],
      "payable": false,
      "stateMutability": "nonpayable",
      "type": "function"
    },
    {
      "constant": false,
      "inputs": [
        {
          "name": "ticketId",
          "type": "string"
        },
        {
          "name": "userAddr",
          "type": "address"
        },
        {
          "name": "cTicketIds",
          "type": "string[]"
        }
      ],
      "name": "mintTicket",
      "outputs": [],
      "payable": false,
      "stateMutability": "nonpayable",
      "type": "function"
    },
    {
      "constant": false,
      "inputs": [
        {
          "name": "toUser",
          "type": "address"
        },
        {
          "name": "ticketId",
          "type": "string"
        },
        {
          "name": "cTicketIds",
          "type": "string[]"
        },
        {
          "name": "transferPrice",
          "type": "uint256"
        }
      ],
      "name": "transferTicket",
      "outputs": [],
      "payable": false,
      "stateMutability": "nonpayable",
      "type": "function"
    },
    {
      "constant": false,
      "inputs": [
        {
          "name": "ticketId",
          "type": "string"
        },
        {
          "name": "cTicketIds",
          "type": "string[]"
        },
        {
          "name": "transferPrice",
          "type": "uint256"
        }
      ],
      "name": "listTicket",
      "outputs": [],
      "payable": false,
      "stateMutability": "nonpayable",
      "type": "function"
    },
    {
      "constant": false,
      "inputs": [
        {
          "name": "ticketId",
          "type": "string"
        },
        {
          "name": "cTicketIds",
          "type": "string[]"
        },
        {
          "name": "state",
          "type": "uint256"
        }
      ],
      "name": "acceptTicket",
      "outputs": [],
      "payable": false,
      "stateMutability": "nonpayable",
      "type": "function"
    },
    {
      "constant": false,
      "inputs": [
        {
          "name": "ticketId",
          "type": "string"
        },
        {
          "name": "cTicketIds",
          "type": "string[]"
        }
      ],
      "name": "buyTicketFromMarket",
      "outputs": [],
      "payable": false,
      "stateMutability": "nonpayable",
      "type": "function"
    },
    {
      "constant": false,
      "inputs": [
        {
          "name": "ticketId",
          "type": "string"
        },
        {
          "name": "cTicketIds",
          "type": "string[]"
        }
      ],
      "name": "cancelSoldTicket",
      "outputs": [],
      "payable": false,
      "stateMutability": "nonpayable",
      "type": "function"
    },
    {
      "constant": false,
      "inputs": [
        {
          "name": "userAddr",
          "type": "address"
        },
        {
          "name": "ticketId",
          "type": "string"
        },
        {
          "name": "cTicketId",
          "type": "string"
        }
      ],
      "name": "checkcTicket",
      "outputs": [],
      "payable": false,
      "stateMutability": "nonpayable",
      "type": "function"
    },
    {
      "constant": true,
      "inputs": [
        {
          "name": "ticketId",
          "type": "string"
        }
      ],
      "name": "getTicketInfo",
      "outputs": [
        {
          "name": "issuer",
          "type": "string"
        },
        {
          "name": "scenicAddr",
          "type": "address"
        },
        {
          "name": "price",
          "type": "uint256"
        },
        {
          "name": "total",
          "type": "uint256"
        },
        {
          "name": "issued",
          "type": "uint256"
        },
        {
          "name": "sDate",
          "type": "uint64"
        },
        {
          "name": "eDate",
          "type": "uint64"
        }
      ],
      "payable": false,
      "stateMutability": "view",
      "type": "function"
    },
    {
      "constant": true,
      "inputs": [
        {
          "name": "ticketId",
          "type": "string"
        },
        {
          "name": "cTicketId",
          "type": "string"
        }
      ],
      "name": "getcTicketInfo",
      "outputs": [
        {
          "name": "holder",
          "type": "address"
        },
        {
          "name": "state",
          "type": "uint256"
        },
        {
          "name": "toUser",
          "type": "address"
        },
        {
          "name": "transferPrice",
          "type": "uint256"
        },
        {
          "name": "transferState",
          "type": "uint256"
        }
      ],
      "payable": false,
      "stateMutability": "view",
      "type": "function"
    },
    {
      "constant": true,
      "inputs": [
        {
          "name": "ticketId",
          "type": "string"
        }
      ],
      "name": "getTicketAddr",
      "outputs": [
        {
          "name": "ticketAddr",
          "type": "address"
        }
      ],
      "payable": false,
      "stateMutability": "view",
      "type": "function"
    }
  ],
  "bytecode": "0x60806040523480156200001157600080fd5b5060405160408062005da8833981018060405262000033919081019062000088565b60008054600160a060020a0319908116331790915560018054600160a060020a0393841690831617905560028054939092169216919091179055620000d3565b6000620000818251620000c7565b9392505050565b600080604083850312156200009c57600080fd5b6000620000aa858562000073565b9250506020620000bd8582860162000073565b9150509250929050565b600160a060020a031690565b615cc580620000e36000396000f300608060405260043610620000ac5763ffffffff60e060020a6000350416620328868114620000b15780630168c9fd14620000d85780634af2a06614620000fd5780636b08e7fc146200013a5780636e793975146200015f578063941dc03e14620001845780639627317c14620001a9578063c15136f214620001ce578063c1df8e0c1462000208578063cd8d04c2146200022d578063d0ee9f7c1462000265578063d55f2c5b146200028a575b600080fd5b348015620000be57600080fd5b50620000d6620000d0366004620024fb565b620002af565b005b348015620000e557600080fd5b50620000d6620000f736600462001fd9565b6200067b565b3480156200010a57600080fd5b50620001226200011c366004620021ad565b62000807565b604051620001319190620027f6565b60405180910390f35b3480156200014757600080fd5b50620000d6620001593660046200242f565b6200087a565b3480156200016c57600080fd5b50620000d66200017e3660046200242f565b62000c2f565b3480156200019157600080fd5b50620000d6620001a336600462002075565b62000dab565b348015620001b657600080fd5b50620000d6620001c836600462002261565b62001002565b348015620001db57600080fd5b50620001f3620001ed366004620021ad565b620013cb565b604051620001319796959493929190620029f3565b3480156200021557600080fd5b50620000d662000227366004620021e6565b62001502565b3480156200023a57600080fd5b50620002526200024c36600462002576565b62001753565b6040516200013195949392919062002910565b3480156200027257600080fd5b50620000d662000284366004620024fb565b62001911565b3480156200029757600080fd5b50620000d6620002a936600462002261565b62001a9a565b600080600080600080600160a060020a03166003896040518082805190602001908083835b60208310620002f55780518252601f199092019160209182019101620002d4565b51815160209384036101000a6000190180199092169116179052920194855250604051938490030190922054600160a060020a0316929092141591506200035e90505760405160e560020a62461bcd028152600401620003559062002c3b565b60405180910390fd5b6003886040518082805190602001908083835b60208310620003925780518252601f19909201916020918201910162000371565b51815160209384036101000a60001901801990921691161790529201948552506040519384900301909220548951600160a060020a0390911697508796503395508692506339c9c648915089906000908110620003eb57fe5b906020019060200201516040518263ffffffff1660e060020a028152600401620004169190620029bc565b6040805180830381600087803b1580156200043057600080fd5b505af115801562000445573d6000803e3d6000fd5b505050506040513d601f19601f820116820180604052506200046b9190810190620020fb565b508092505083600160a060020a031663933942038860008151811015156200048f57fe5b906020019060200201516040518263ffffffff1660e060020a028152600401620004ba9190620029bc565b606060405180830381600087803b158015620004d557600080fd5b505af1158015620004ea573d6000803e3d6000fd5b505050506040513d601f19601f820116820180604052506200051091908101906200213a565b506040517f6861e220000000000000000000000000000000000000000000000000000000008152909250600160a060020a0386169150636861e220906200055e908a908a9060040162002979565b600060405180830381600087803b1580156200057957600080fd5b505af11580156200058e573d6000803e3d6000fd5b50505050856000141562000671576002546040517f3b464472000000000000000000000000000000000000000000000000000000008152600160a060020a0390911690633b46447290620005ed90859087908c9087906004016200280c565b600060405180830381600087803b1580156200060857600080fd5b505af11580156200061d573d6000803e3d6000fd5b5050505082600160a060020a031682600160a060020a03167f592959eefaeed0160f6a7fa5aafe08122e4fbf78617a34d5802ab6fcc52515f389846040516200066892919062002979565b60405180910390a35b5050505050505050565b6000806000600160a060020a03166003866040518082805190602001908083835b60208310620006bd5780518252601f1990920191602091820191016200069c565b51815160209384036101000a6000190180199092169116179052920194855250604051938490030190922054600160a060020a0316929092141591506200071d90505760405160e560020a62461bcd028152600401620003559062002c3b565b6003856040518082805190602001908083835b60208310620007515780518252601f19909201916020918201910162000730565b51815160209384036101000a600019018019909216911617905292019485525060405193849003018320547f97f2c99d000000000000000000000000000000000000000000000000000000008452600160a060020a0316945084935083926397f2c99d9250620007cb91508990889088906004016200287d565b600060405180830381600087803b158015620007e657600080fd5b505af1158015620007fb573d6000803e3d6000fd5b50505050505050505050565b60006003826040518082805190602001908083835b602083106200083d5780518252601f1990920191602091820191016200081c565b51815160209384036101000a6000190180199092169116179052920194855250604051938490030190922054600160a060020a0316949350505050565b600080600080600080600160a060020a03166003886040518082805190602001908083835b60208310620008c05780518252601f1990920191602091820191016200089f565b51815160209384036101000a6000190180199092169116179052920194855250604051938490030190922054600160a060020a0316929092141591506200092090505760405160e560020a62461bcd028152600401620003559062002c3b565b6003876040518082805190602001908083835b60208310620009545780518252601f19909201916020918201910162000933565b51815160209384036101000a60001901801990921691161790529201948552506040519384900301909220548851600160a060020a0390911697508796503395508692506339c9c648915088906000908110620009ad57fe5b906020019060200201516040518263ffffffff1660e060020a028152600401620009d89190620029bc565b6040805180830381600087803b158015620009f257600080fd5b505af115801562000a07573d6000803e3d6000fd5b505050506040513d601f19601f8201168201806040525062000a2d9190810190620020fb565b508092505083600160a060020a0316639339420387600081518110151562000a5157fe5b906020019060200201516040518263ffffffff1660e060020a02815260040162000a7c9190620029bc565b606060405180830381600087803b15801562000a9757600080fd5b505af115801562000aac573d6000803e3d6000fd5b505050506040513d601f19601f8201168201806040525062000ad291908101906200213a565b506040517fc9965bc6000000000000000000000000000000000000000000000000000000008152909250600160a060020a038616915063c9965bc69062000b1e90899060040162002966565b600060405180830381600087803b15801562000b3957600080fd5b505af115801562000b4e573d6000803e3d6000fd5b50506002546040517f3b464472000000000000000000000000000000000000000000000000000000008152600160a060020a039091169250633b464472915062000ba390859087908b9087906004016200280c565b600060405180830381600087803b15801562000bbe57600080fd5b505af115801562000bd3573d6000803e3d6000fd5b5050505082600160a060020a031682600160a060020a03167f592959eefaeed0160f6a7fa5aafe08122e4fbf78617a34d5802ab6fcc52515f3888460405162000c1e92919062002979565b60405180910390a350505050505050565b6000806000600160a060020a03166003856040518082805190602001908083835b6020831062000c715780518252601f19909201916020918201910162000c50565b51815160209384036101000a6000190180199092169116179052920194855250604051938490030190922054600160a060020a03169290921415915062000cd190505760405160e560020a62461bcd028152600401620003559062002c3b565b6003846040518082805190602001908083835b6020831062000d055780518252601f19909201916020918201910162000ce4565b51815160209384036101000a600019018019909216911617905292019485525060405193849003018320547fd88baafe000000000000000000000000000000000000000000000000000000008452600160a060020a03169450849350839263d88baafe925062000d7b9150869060040162002966565b600060405180830381600087803b15801562000d9657600080fd5b505af115801562000671573d6000803e3d6000fd5b6000806000600160a060020a03166003856040518082805190602001908083835b6020831062000ded5780518252601f19909201916020918201910162000dcc565b51815160209384036101000a6000190180199092169116179052920194855250604051938490030190922054600160a060020a03169290921415915062000e4d90505760405160e560020a62461bcd028152600401620003559062002c3b565b6003846040518082805190602001908083835b6020831062000e815780518252601f19909201916020918201910162000e60565b51815160209384036101000a600019018019909216911617905292019485525060405193849003018320547f999f77f9000000000000000000000000000000000000000000000000000000008452600160a060020a03169450849350839263999f77f9925062000ef9915088908790600401620028b2565b600060405180830381600087803b15801562000f1457600080fd5b505af115801562000f29573d6000803e3d6000fd5b50506002546040517f43c51d0c000000000000000000000000000000000000000000000000000000008152600160a060020a0390911692506343c51d0c915062000f7a9086908990600401620029cf565b600060405180830381600087803b15801562000f9557600080fd5b505af115801562000faa573d6000803e3d6000fd5b5050505084600160a060020a031633600160a060020a03167f63f42fb21d7abf9755f7bc578bc61f02d314f224314c4ff32b55268d4e2873168560405162000ff39190620029bc565b60405180910390a35050505050565b6002546040517f896845cf0000000000000000000000000000000000000000000000000000000081526000916060918391600160a060020a03169063896845cf90620010569060019033906004016200299d565b602060405180830381600087803b1580156200107157600080fd5b505af115801562001086573d6000803e3d6000fd5b505050506040513d601f19601f82011682018060405250620010ac919081019062002184565b9250821515620010d35760405160e560020a62461bcd028152600401620003559062002c29565b6000600160a060020a031660038a6040518082805190602001908083835b60208310620011125780518252601f199092019160209182019101620010f1565b51815160209384036101000a6000190180199092169116179052920194855250604051938490030190922054600160a060020a03169290921491506200117190505760405160e560020a62461bcd028152600401620003559062002bf3565b6002546040517fbdb0708a000000000000000000000000000000000000000000000000000000008152600160a060020a039091169063bdb0708a90620011bc903390600401620027f6565b600060405180830381600087803b158015620011d757600080fd5b505af1158015620011ec573d6000803e3d6000fd5b505050506040513d6000823e601f3d908101601f1916820160405262001216919081019062002495565b5080925050818b8b8b8b8b8b8b8b600160009054906101000a9004600160a060020a03166200124462001de2565b620012599a9998979695949392919062002a97565b604051809103906000f08015801562001276573d6000803e3d6000fd5b506002546040517fc385a222000000000000000000000000000000000000000000000000000000008152919250600160a060020a03169063c385a22290620012c59033908d90600401620028b2565b600060405180830381600087803b158015620012e057600080fd5b505af1158015620012f5573d6000803e3d6000fd5b505050508060038a6040518082805190602001908083835b602083106200132e5780518252601f1990920191602091820191016200130d565b51815160209384036101000a600019018019909216911617905292019485525060405193849003018320805473ffffffffffffffffffffffffffffffffffffffff1916600160a060020a0395861617905550509082169033907f94d77fd386fb41bfbbe9210322c7df6134410b87eb022e647e4424264f047a0790620013b6908d90620029bc565b60405180910390a35050505050505050505050565b606060008060008060008060008060038a6040518082805190602001908083835b602083106200140d5780518252601f199092019160209182019101620013ec565b51815160209384036101000a600019018019909216911617905292019485525060408051948590039091018420547fae3a02b60000000000000000000000000000000000000000000000000000000085529051600160a060020a039091169550859450849363ae3a02b69350600480820193506000929182900301818387803b1580156200149a57600080fd5b505af1158015620014af573d6000803e3d6000fd5b505050506040513d6000823e601f3d908101601f19168201604052620014d991908101906200236c565b809950819a50829b50839c50849d50859e50869f50505050505050505050919395979092949650565b6000806000600160a060020a03166003866040518082805190602001908083835b60208310620015445780518252601f19909201916020918201910162001523565b51815160209384036101000a6000190180199092169116179052920194855250604051938490030190922054600160a060020a031692909214159150620015a490505760405160e560020a62461bcd028152600401620003559062002c3b565b6003856040518082805190602001908083835b60208310620015d85780518252601f199092019160209182019101620015b7565b51815160209384036101000a600019018019909216911617905292019485525060405193849003018320547fd9c762b0000000000000000000000000000000000000000000000000000000008452600160a060020a03169450849350839263d9c762b092506200165091508790879060040162002859565b600060405180830381600087803b1580156200166b57600080fd5b505af115801562001680573d6000803e3d6000fd5b50506002546040517fe48da736000000000000000000000000000000000000000000000000000000008152600160a060020a03909116925063e48da7369150620016d390879089908890600401620028d6565b600060405180830381600087803b158015620016ee57600080fd5b505af115801562001703573d6000803e3d6000fd5b5050505083600160a060020a03167fe47c478bc3ee08938c5bdd932ad0bd9651ba7380298d6e006eca1e86bfd8e09086856040516200174492919062002a6e565b60405180910390a25050505050565b60008060008060008060006003896040518082805190602001908083835b60208310620017925780518252601f19909201916020918201910162001771565b51815160209384036101000a600019018019909216911617905292019485525060405193849003018320547f39c9c648000000000000000000000000000000000000000000000000000000008452600160a060020a0316945084935083926339c9c64892506200180891508b90600401620029bc565b6040805180830381600087803b1580156200182257600080fd5b505af115801562001837573d6000803e3d6000fd5b505050506040513d601f19601f820116820180604052506200185d9190810190620020fb565b6040517f933942030000000000000000000000000000000000000000000000000000000081529198509650600160a060020a03821690639339420390620018a9908b90600401620029bc565b606060405180830381600087803b158015620018c457600080fd5b505af1158015620018d9573d6000803e3d6000fd5b505050506040513d601f19601f82011682018060405250620018ff91908101906200213a565b989b979a509098509695945050505050565b6000806000600160a060020a03166003866040518082805190602001908083835b60208310620019535780518252601f19909201916020918201910162001932565b51815160209384036101000a6000190180199092169116179052920194855250604051938490030190922054600160a060020a031692909214159150620019b390505760405160e560020a62461bcd028152600401620003559062002c3b565b6003856040518082805190602001908083835b60208310620019e75780518252601f199092019160209182019101620019c6565b51815160209384036101000a600019018019909216911617905292019485525060405193849003018320547f0304b7a3000000000000000000000000000000000000000000000000000000008452600160a060020a031694508493508392630304b7a3925062001a5f91508790879060040162002979565b600060405180830381600087803b15801562001a7a57600080fd5b505af115801562001a8f573d6000803e3d6000fd5b505050505050505050565b6002546040517f896845cf0000000000000000000000000000000000000000000000000000000081526000916060918391600160a060020a03169063896845cf9062001aee9060019033906004016200299d565b602060405180830381600087803b15801562001b0957600080fd5b505af115801562001b1e573d6000803e3d6000fd5b505050506040513d601f19601f8201168201806040525062001b44919081019062002184565b925082151562001b6b5760405160e560020a62461bcd028152600401620003559062002c17565b6000600160a060020a031660038a6040518082805190602001908083835b6020831062001baa5780518252601f19909201916020918201910162001b89565b51815160209384036101000a6000190180199092169116179052920194855250604051938490030190922054600160a060020a03169290921415915062001c0a90505760405160e560020a62461bcd028152600401620003559062002c05565b6002546040517fbdb0708a000000000000000000000000000000000000000000000000000000008152600160a060020a039091169063bdb0708a9062001c55903390600401620027f6565b600060405180830381600087803b15801562001c7057600080fd5b505af115801562001c85573d6000803e3d6000fd5b505050506040513d6000823e601f3d908101601f1916820160405262001caf919081019062002495565b50809250506003896040518082805190602001908083835b6020831062001ce85780518252601f19909201916020918201910162001cc7565b51815160209384036101000a600019018019909216911617905292019485525060405193849003018320547fed9aa39d000000000000000000000000000000000000000000000000000000008452600160a060020a03169350839263ed9aa39d925062001d69915085908f908f908e908e908e908e908e9060040162002b5a565b600060405180830381600087803b15801562001d8457600080fd5b505af115801562001d99573d6000803e3d6000fd5b5050505080600160a060020a031633600160a060020a03167f94d77fd386fb41bfbbe9210322c7df6134410b87eb022e647e4424264f047a078b604051620013b69190620029bc565b604051612f4a8062002d4283390190565b600062001e01823562002cca565b9392505050565b600062001e01825162002cca565b6000601f8201831362001e2857600080fd5b813562001e3f62001e398262002c75565b62002c4d565b81815260209384019390925082018360005b8381101562001e81578135860162001e6a888262001efe565b845250602092830192919091019060010162001e51565b5050505092915050565b6000601f8201831362001e9d57600080fd5b815162001eae62001e398262002c75565b81815260209384019390925082018360005b8381101562001e81578151860162001ed9888262001f54565b845250602092830192919091019060010162001ec0565b600062001e01825162002ce6565b6000601f8201831362001f1057600080fd5b813562001f2162001e398262002c97565b9150808252602083016020830185838301111562001f3e57600080fd5b62001f4b83828462002cf8565b50505092915050565b6000601f8201831362001f6657600080fd5b815162001f7762001e398262002c97565b9150808252602083016020830185838301111562001f9457600080fd5b62001f4b83828462002d04565b600062001e01823562002cd6565b600062001e01825162002cd6565b600062001e01823562002cd9565b600062001e01825162002cd9565b6000806000806080858703121562001ff057600080fd5b600062001ffe878762001df3565b945050602085013567ffffffffffffffff8111156200201c57600080fd5b6200202a8782880162001efe565b935050604085013567ffffffffffffffff8111156200204857600080fd5b620020568782880162001e16565b9250506060620020698782880162001fa1565b91505092959194509250565b6000806000606084860312156200208b57600080fd5b600062002099868662001df3565b935050602084013567ffffffffffffffff811115620020b757600080fd5b620020c58682870162001efe565b925050604084013567ffffffffffffffff811115620020e357600080fd5b620020f18682870162001efe565b9150509250925092565b600080604083850312156200210f57600080fd5b60006200211d858562001e08565b9250506020620021308582860162001faf565b9150509250929050565b6000806000606084860312156200215057600080fd5b60006200215e868662001e08565b9350506020620021718682870162001faf565b9250506040620020f18682870162001faf565b6000602082840312156200219757600080fd5b6000620021a5848462001ef0565b949350505050565b600060208284031215620021c057600080fd5b813567ffffffffffffffff811115620021d857600080fd5b620021a58482850162001efe565b600080600060608486031215620021fc57600080fd5b833567ffffffffffffffff8111156200221457600080fd5b620022228682870162001efe565b9350506020620022358682870162001df3565b925050604084013567ffffffffffffffff8111156200225357600080fd5b620020f18682870162001e16565b600080600080600080600080610100898b0312156200227f57600080fd5b883567ffffffffffffffff8111156200229757600080fd5b620022a58b828c0162001efe565b9850506020620022b88b828c0162001df3565b975050604089013567ffffffffffffffff811115620022d657600080fd5b620022e48b828c0162001efe565b9650506060620022f78b828c0162001fa1565b95505060806200230a8b828c0162001fa1565b94505060a06200231d8b828c0162001fbd565b93505060c0620023308b828c0162001fbd565b92505060e089013567ffffffffffffffff8111156200234e57600080fd5b6200235c8b828c0162001efe565b9150509295985092959890939650565b600080600080600080600060e0888a0312156200238857600080fd5b875167ffffffffffffffff811115620023a057600080fd5b620023ae8a828b0162001f54565b9750506020620023c18a828b0162001e08565b9650506040620023d48a828b0162001faf565b9550506060620023e78a828b0162001faf565b9450506080620023fa8a828b0162001faf565b93505060a06200240d8a828b0162001fcb565b92505060c0620024208a828b0162001fcb565b91505092959891949750929550565b600080604083850312156200244357600080fd5b823567ffffffffffffffff8111156200245b57600080fd5b620024698582860162001efe565b925050602083013567ffffffffffffffff8111156200248757600080fd5b620021308582860162001e16565b60008060408385031215620024a957600080fd5b825167ffffffffffffffff811115620024c157600080fd5b620024cf8582860162001f54565b925050602083015167ffffffffffffffff811115620024ed57600080fd5b620021308582860162001e8b565b6000806000606084860312156200251157600080fd5b833567ffffffffffffffff8111156200252957600080fd5b620025378682870162001efe565b935050602084013567ffffffffffffffff8111156200255557600080fd5b620025638682870162001e16565b9250506040620020f18682870162001fa1565b600080604083850312156200258a57600080fd5b823567ffffffffffffffff811115620025a257600080fd5b620025b08582860162001efe565b925050602083013567ffffffffffffffff811115620025ce57600080fd5b620021308582860162001efe565b620025e78162002cca565b82525050565b6000620025fa8262002cc6565b80845260208401935083602082028501620026158562002cc0565b60005b84811015620026525783830388526200263383835162002669565b9250620026408262002cc0565b60209890980197915060010162002618565b50909695505050505050565b620025e78162002ceb565b6000620026768262002cc6565b8084526200268c81602086016020860162002d04565b620026978162002d37565b9093016020019392505050565b601a81527f74686973205469636b657420616c726561647920697373756564000000000000602082015260400190565b601981527f74686973205469636b6574206973206e6f742069737375656400000000000000602082015260400190565b602481527f6f6e6c7920697373756520636f6d70616e792063616e2075706461746520546960208201527f636b657400000000000000000000000000000000000000000000000000000000604082015260600190565b602381527f6f6e6c7920697373756520636f6d70616e792063616e2069737375652054696360208201527f6b65740000000000000000000000000000000000000000000000000000000000604082015260600190565b601681527f74686973205469636b6574206e6f742069737375656400000000000000000000602082015260400190565b620025e78162002cd6565b620025e78162002cd9565b60208101620028068284620025dc565b92915050565b608081016200281c8287620025dc565b6200282b6020830186620025dc565b81810360408301526200283f8185620025ed565b9050620028506060830184620027e0565b95945050505050565b60408101620028698285620025dc565b8181036020830152620021a58184620025ed565b606081016200288d8286620025dc565b8181036020830152620028a18185620025ed565b9050620021a56040830184620027e0565b60408101620028c28285620025dc565b8181036020830152620021a5818462002669565b60608101620028e68286620025dc565b8181036020830152620028fa818562002669565b90508181036040830152620028508184620025ed565b60a08101620029208288620025dc565b6200292f6020830187620027e0565b6200293e6040830186620025dc565b6200294d6060830185620027e0565b6200295c6080830184620027e0565b9695505050505050565b6020808252810162001e018184620025ed565b604080825281016200298c8185620025ed565b905062001e016020830184620027e0565b60408101620029ad82856200265e565b62001e016020830184620025dc565b6020808252810162001e01818462002669565b60408082528101620029e2818562002669565b905062001e016020830184620025dc565b60e0808252810162002a06818a62002669565b905062002a176020830189620025dc565b62002a266040830188620027e0565b62002a356060830187620027e0565b62002a446080830186620027e0565b62002a5360a0830185620027eb565b62002a6260c0830184620027eb565b98975050505050505050565b6040808252810162002a81818562002669565b90508181036020830152620021a58184620025ed565b610140808252810162002aab818d62002669565b9050818103602083015262002ac1818c62002669565b905062002ad2604083018b620025dc565b818103606083015262002ae6818a62002669565b905062002af76080830189620027e0565b62002b0660a0830188620027e0565b62002b1560c0830187620027eb565b62002b2460e0830186620027eb565b81810361010083015262002b39818562002669565b905062002b4b610120830184620025dc565b9b9a5050505050505050505050565b610100808252810162002b6e818b62002669565b9050818103602083015262002b84818a62002669565b905062002b956040830189620025dc565b62002ba46060830188620027e0565b62002bb36080830187620027e0565b62002bc260a0830186620027eb565b62002bd160c0830185620027eb565b81810360e083015262002be5818462002669565b9a9950505050505050505050565b602080825281016200280681620026a4565b602080825281016200280681620026d4565b60208082528101620028068162002704565b6020808252810162002806816200275a565b602080825281016200280681620027b0565b60405181810167ffffffffffffffff8111828210171562002c6d57600080fd5b604052919050565b600067ffffffffffffffff82111562002c8d57600080fd5b5060209081020190565b600067ffffffffffffffff82111562002caf57600080fd5b506020601f91909101601f19160190565b60200190565b5190565b600160a060020a031690565b90565b67ffffffffffffffff1690565b151590565b6000620028068262002cd6565b82818337506000910152565b60005b8381101562002d2157818101518382015260200162002d07565b8381111562002d31576000848401525b50505050565b601f01601f19169056006000600d8190556001600e8190556002600f819055601092909255601155601255600360135560c0604052600460808190527f6d696e740000000000000000000000000000000000000000000000000000000060a09081526200006691601491906200026c565b5060408051808201909152600e8082527f4163636570745472616e736665720000000000000000000000000000000000006020909201918252620000ad916015916200026c565b5060408051808201909152600d8082527f42757946726f6d4d61726b6574000000000000000000000000000000000000006020909201918252620000f4916016916200026c565b506040805180820190915260048082527f757365640000000000000000000000000000000000000000000000000000000060209092019182526200013b916017916200026c565b503480156200014957600080fd5b5060405162002f4a38038062002f4a83398101806040526200016f91908101906200039e565b60008054600160a060020a031916321790558951620001969060029060208d01906200026c565b508851620001ac9060049060208c01906200026c565b5060038054600160a060020a031916600160a060020a038a161790558651620001dd9060059060208a01906200026c565b5060068690556007859055600980546001604060020a038581166801000000000000000002604060020a608060020a031991881667ffffffffffffffff19909316929092171617905581516200023b90600a9060208501906200026c565b5060018054600160a060020a031916600160a060020a03929092169190911790555062000585975050505050505050565b828054600181600116156101000203166002900490600052602060002090601f016020900481019282601f10620002af57805160ff1916838001178555620002df565b82800160010185558215620002df579182015b82811115620002df578251825591602001919060010190620002c2565b50620002ed929150620002f1565b5090565b6200030e91905b80821115620002ed5760008155600101620002f8565b90565b60006200031f82516200053a565b9392505050565b6000601f820183136200033857600080fd5b81516200034f620003498262000512565b620004eb565b915080825260208301602083018583830111156200036c57600080fd5b6200037983828462000552565b50505092915050565b60006200031f82516200030e565b60006200031f825162000546565b6000806000806000806000806000806101408b8d031215620003bf57600080fd5b8a516001604060020a03811115620003d657600080fd5b620003e48d828e0162000326565b9a505060208b01516001604060020a038111156200040157600080fd5b6200040f8d828e0162000326565b9950506040620004228d828e0162000311565b98505060608b01516001604060020a038111156200043f57600080fd5b6200044d8d828e0162000326565b9750506080620004608d828e0162000382565b96505060a0620004738d828e0162000382565b95505060c0620004868d828e0162000390565b94505060e0620004998d828e0162000390565b9350506101008b01516001604060020a03811115620004b757600080fd5b620004c58d828e0162000326565b925050610120620004d98d828e0162000311565b9150509295989b9194979a5092959850565b6040518181016001604060020a03811182821017156200050a57600080fd5b604052919050565b60006001604060020a038211156200052957600080fd5b506020601f91909101601f19160190565b600160a060020a031690565b6001604060020a031690565b60005b838110156200056f57818101518382015260200162000555565b838111156200057f576000848401525b50505050565b6129b580620005956000396000f30060806040526004361061010e5763ffffffff60e060020a6000350416630304b7a38114610113578063031a9f8114610135578063235b6ea1146101605780633429e35c1461017557806339c9c64814610197578063497f2fd3146101c55780635cd05e8c146101da5780636861e220146101fa578063762a92891461021a5780637a27da791461023c578063933942031461025157806397f2c99d14610280578063999f77f9146102a0578063ae3a02b6146102c0578063bc11f3a7146102e8578063c6a879d6146102fd578063c9965bc614610312578063d66d3b2414610332578063d88baafe14610347578063d9c762b014610367578063ed9aa39d14610387578063f3a49e95146103a7575b600080fd5b34801561011f57600080fd5b5061013361012e366004612274565b6103c9565b005b34801561014157600080fd5b5061014a610695565b6040516101579190612884565b60405180910390f35b34801561016c57600080fd5b5061014a61069b565b34801561018157600080fd5b5061018a6106a1565b604051610157919061272d565b3480156101a357600080fd5b506101b76101b23660046122bb565b61072c565b6040516101579291906126ea565b3480156101d157600080fd5b5061018a610818565b3480156101e657600080fd5b5061018a6101f53660046123e7565b610873565b34801561020657600080fd5b50610133610215366004612274565b6108e7565b34801561022657600080fd5b5061022f610d15565b6040516101579190612892565b34801561024857600080fd5b5061014a610d31565b34801561025d57600080fd5b5061027161026c3660046122bb565b610d37565b60405161015793929190612705565b34801561028c57600080fd5b5061013361029b36600461218a565b610e79565b3480156102ac57600080fd5b506101336102bb3660046121ef565b61113c565b3480156102cc57600080fd5b506102d5611471565b6040516101579796959493929190612787565b3480156102f457600080fd5b5061018a611552565b34801561030957600080fd5b5061018a6115ad565b34801561031e57600080fd5b5061013361032d366004612237565b611608565b34801561033e57600080fd5b5061022f611912565b34801561035357600080fd5b50610133610362366004612237565b611922565b34801561037357600080fd5b50610133610382366004612138565b611b77565b34801561039357600080fd5b506101336103a23660046122f0565b611ec3565b3480156103b357600080fd5b506103bc611fa8565b60405161015791906126d6565b600060605b835182101561068f5732600160a060020a0316600c85848151811015156103f157fe5b906020019060200201516040518082805190602001908083835b6020831061042a5780518252601f19909201916020918201910161040b565b518151600019602094850361010090810a919091019182169119929092161790915293909101958652604051958690030190942054600160a060020a039190041693909314925061049c9150505760405160e560020a62461bcd02815260040161049390612804565b60405180910390fd5b83828151811015156104aa57fe5b906020019060200201519050600e54600c826040518082805190602001908083835b602083106104eb5780518252601f1990920191602091820191016104cc565b51815160209384036101000a600019018019909216911617905292019485525060405193849003810184206001019490945550508251600092600c92859290918291908401908083835b602083106105545780518252601f199092019160209182019101610535565b51815160209384036101000a60001901801990921691161790529201948552506040519384900381018420600301805473ffffffffffffffffffffffffffffffffffffffff1916600160a060020a039690961695909517909455505082518592600c92859290918291908401908083835b602083106105e45780518252601f1990920191602091820191016105c5565b51815160209384036101000a6000190180199092169116179052920194855250604051938490038101842060020194909455505060115483519092600c92859290918291908401908083835b6020831061064f5780518252601f199092019160209182019101610630565b51815160209384036101000a60001901801990921691161790529201948552506040519384900301909220600401929092555050600191909101906103ce565b50505050565b60085481565b60065481565b6002805460408051602060018416156101000260001901909316849004601f810184900484028201840190925281815292918301828280156107245780601f106106f957610100808354040283529160200191610724565b820191906000526020600020905b81548152906001019060200180831161070757829003601f168201915b505050505081565b600080600c836040518082805190602001908083835b602083106107615780518252601f199092019160209182019101610742565b6001836020036101000a038019825116818451168082178552505050505050905001915050908152602001604051809103902060000160019054906101000a9004600160a060020a03169150600c836040518082805190602001908083835b602083106107df5780518252601f1990920191602091820191016107c0565b51815160209384036101000a60001901801990921691161790529201948552506040519384900301909220600101549395939450505050565b6004805460408051602060026001851615610100026000190190941693909304601f810184900484028201840190925281815292918301828280156107245780601f106106f957610100808354040283529160200191610724565b600b80548290811061088157fe5b600091825260209182902001805460408051601f60026000196101006001871615020190941693909304928301859004850281018501909152818152935090918301828280156107245780601f106106f957610100808354040283529160200191610724565b600060605b835182101561068f5732600160a060020a0316600c858481518110151561090f57fe5b906020019060200201516040518082805190602001908083835b602083106109485780518252601f199092019160209182019101610929565b51815160209384036101000a6000190180199092169116179052920194855250604051938490030190922060030154600160a060020a03169290921491506109a790505760405160e560020a62461bcd02815260040161049390612854565b601154600c85848151811015156109ba57fe5b906020019060200201516040518082805190602001908083835b602083106109f35780518252601f1990920191602091820191016109d4565b51815160209384036101000a6000190180199092169116179052920194855250604051938490030190922060040154929092149150610a4990505760405160e560020a62461bcd02815260040161049390612834565b8382815181101515610a5757fe5b9060200190602002015190508260001415610ca057600d54600c826040518082805190602001908083835b60208310610aa15780518252601f199092019160209182019101610a82565b51815160209384036101000a6000190180199092169116179052920194855250604051938490038101842060010194909455505082513292600c92859290918291908401908083835b60208310610b095780518252601f199092019160209182019101610aea565b6001836020036101000a038019825116818451168082178552505050505050905001915050908152602001604051809103902060000160016101000a815481600160a060020a030219169083600160a060020a03160217905550601254600c826040518082805190602001908083835b60208310610b985780518252601f199092019160209182019101610b79565b51815160209384036101000a600019018019909216911617905292019485525060405193849003810184206004019490945550506001548351600160a060020a0390911692638ce1b13f9285923292600c92859290918291908401908083835b60208310610c175780518252601f199092019160209182019101610bf8565b51815160209384036101000a6000190180199092169116179052920194855250604051938490030183206002015463ffffffff871660e060020a028452610c699594939092506015915060040161273e565b600060405180830381600087803b158015610c8357600080fd5b505af1158015610c97573d6000803e3d6000fd5b50505050610d0a565b601354600c826040518082805190602001908083835b60208310610cd55780518252601f199092019160209182019101610cb6565b51815160209384036101000a600019018019909216911617905292019485525060405193849003019092206004019290925550505b6001909101906108ec565b60095468010000000000000000900467ffffffffffffffff1681565b60075481565b6000806000600c846040518082805190602001908083835b60208310610d6e5780518252601f199092019160209182019101610d4f565b51815160209384036101000a60001901801990921691161790529201948552506040519384900381018420600301548851600160a060020a039091169750600c94899450925082918401908083835b60208310610ddc5780518252601f199092019160209182019101610dbd565b51815160209384036101000a60001901801990921691161790529201948552506040519384900381018420600201548851909650600c94899450925082918401908083835b60208310610e405780518252601f199092019160209182019101610e21565b51815160209384036101000a60001901801990921691161790529201948552506040519384900301909220600401549496939550505050565b600060605b83518210156111355732600160a060020a0316600c8584815181101515610ea157fe5b906020019060200201516040518082805190602001908083835b60208310610eda5780518252601f199092019160209182019101610ebb565b518151600019602094850361010090810a919091019182169119929092161790915293909101958652604051958690030190942054600160a060020a0391900416939093149250610f439150505760405160e560020a62461bcd02815260040161049390612804565b8382815181101515610f5157fe5b906020019060200201519050600e54600c826040518082805190602001908083835b60208310610f925780518252601f199092019160209182019101610f73565b51815160209384036101000a6000190180199092169116179052920194855250604051938490038101842060010194909455505082518792600c92859290918291908401908083835b60208310610ffa5780518252601f199092019160209182019101610fdb565b51815160209384036101000a60001901801990921691161790529201948552506040519384900381018420600301805473ffffffffffffffffffffffffffffffffffffffff1916600160a060020a039690961695909517909455505082518592600c92859290918291908401908083835b6020831061108a5780518252601f19909201916020918201910161106b565b51815160209384036101000a6000190180199092169116179052920194855250604051938490038101842060020194909455505060115483519092600c92859290918291908401908083835b602083106110f55780518252601f1990920191602091820191016110d6565b51815160209384036101000a6000190180199092169116179052920194855250604051938490030190922060040192909255505060019190910190610e7e565b5050505050565b600082600160a060020a0316600c836040518082805190602001908083835b6020831061117a5780518252601f19909201916020918201910161115b565b518151600019602094850361010090810a919091019182169119929092161790915293909101958652604051958690030190942054600160a060020a03919004169390931492506111e39150505760405160e560020a62461bcd02815260040161049390612804565b600d54600c836040518082805190602001908083835b602083106112185780518252601f1990920191602091820191016111f9565b51815160209384036101000a600019018019909216911617905292019485525060405193849003019092206001015492909214915061126e90505760405160e560020a62461bcd02815260040161049390612844565b600354600160a060020a0316321461129b5760405160e560020a62461bcd02815260040161049390612814565b600f54600c836040518082805190602001908083835b602083106112d05780518252601f1990920191602091820191016112b1565b6001836020036101000a038019825116818451168082178552505050505050905001915050908152602001604051809103902060010181905550601054600c836040518082805190602001908083835b6020831061133f5780518252601f199092019160209182019101611320565b51815160209384036101000a600019018019909216911617905292019485525060405193849003019092206004015492909214159150611384905057506006546113ea565b600c826040518082805190602001908083835b602083106113b65780518252601f199092019160209182019101611397565b51815160209384036101000a6000190180199092169116179052920194855250604051938490030190922060020154925050505b6001546040517f8ce1b13f000000000000000000000000000000000000000000000000000000008152600160a060020a0390911690638ce1b13f9061143a9085903290869060179060040161273e565b600060405180830381600087803b15801561145457600080fd5b505af1158015611468573d6000803e3d6000fd5b50505050505050565b60028054604080516020601f60001961010060018716150201909416859004938401819004810282018101909252828152606093600093849384938493849384938301828280156115035780601f106114d857610100808354040283529160200191611503565b820191906000526020600020905b8154815290600101906020018083116114e657829003601f168201915b5050600354600654600754600854600954979f600160a060020a039094169e50919c509a50985067ffffffffffffffff8086169850680100000000000000009095049094169550929350505050565b6005805460408051602060026001851615610100026000190190941693909304601f810184900484028201840190925281815292918301828280156107245780601f106106f957610100808354040283529160200191610724565b600a805460408051602060026001851615610100026000190190941693909304601f810184900484028201840190925281815292918301828280156107245780601f106106f957610100808354040283529160200191610724565b600060605b825182101561190d57601154600c848481518110151561162957fe5b906020019060200201516040518082805190602001908083835b602083106116625780518252601f199092019160209182019101611643565b51815160209384036101000a60001901801990921691161790529201948552506040519384900301909220600401549290921491506116b890505760405160e560020a62461bcd02815260040161049390612834565b82828151811015156116c657fe5b906020019060200201519050600d54600c826040518082805190602001908083835b602083106117075780518252601f1990920191602091820191016116e8565b51815160209384036101000a6000190180199092169116179052920194855250604051938490038101842060010194909455505082513292600c92859290918291908401908083835b6020831061176f5780518252601f199092019160209182019101611750565b6001836020036101000a038019825116818451168082178552505050505050905001915050908152602001604051809103902060000160016101000a815481600160a060020a030219169083600160a060020a03160217905550601254600c826040518082805190602001908083835b602083106117fe5780518252601f1990920191602091820191016117df565b51815160209384036101000a600019018019909216911617905292019485525060405193849003810184206004019490945550506001548351600160a060020a0390911692638ce1b13f9285923292600c92859290918291908401908083835b6020831061187d5780518252601f19909201916020918201910161185e565b51815160209384036101000a6000190180199092169116179052920194855250604051938490030183206002015463ffffffff871660e060020a0284526118cf9594939092506016915060040161273e565b600060405180830381600087803b1580156118e957600080fd5b505af11580156118fd573d6000803e3d6000fd5b50506001909301925061160d9050565b505050565b60095467ffffffffffffffff1681565b600060605b825182101561190d5732600160a060020a0316600c848481518110151561194a57fe5b906020019060200201516040518082805190602001908083835b602083106119835780518252601f199092019160209182019101611964565b518151600019602094850361010090810a919091019182169119929092161790915293909101958652604051958690030190942054600160a060020a03919004169390931492506119ec9150505760405160e560020a62461bcd02815260040161049390612804565b82828151811015156119fa57fe5b906020019060200201519050600d54600c826040518082805190602001908083835b60208310611a3b5780518252601f199092019160209182019101611a1c565b51815160209384036101000a600019018019909216911617905292019485525060405193849003810184206001019490945550508251600092600c92859290918291908401908083835b60208310611aa45780518252601f199092019160209182019101611a85565b51815160209384036101000a60001901801990921691161790529201948552506040519384900381018420600301805473ffffffffffffffffffffffffffffffffffffffff1916600160a060020a039690961695909517909455505060105483519092600c92859290918291908401908083835b60208310611b375780518252601f199092019160209182019101611b18565b51815160209384036101000a6000190180199092169116179052920194855250604051938490030190922060040192909255505060019190910190611927565b6000606060075483516008540111151515611ba75760405160e560020a62461bcd02815260040161049390612874565b600054600160a060020a03163214611bd45760405160e560020a62461bcd02815260040161049390612824565b600091505b825182101561068f578282815181101515611bf057fe5b906020019060200201519050600c816040518082805190602001908083835b60208310611c2e5780518252601f199092019160209182019101611c0f565b51815160209384036101000a600019018019909216911617905292019485525060405193849003019092205460ff16159150611c8190505760405160e560020a62461bcd02815260040161049390612864565b600b8054600181018083556000929092528251611cc5917f0175b7a638427703f0dbe7bb9bbf987a2551717b34e79f33b5b1008d1fa01db901906020850190611fb7565b50506001600c826040518082805190602001908083835b60208310611cfb5780518252601f199092019160209182019101611cdc565b51815160209384036101000a60001901801990921691161790529201948552506040519384900381018420805460ff191695151595909517909455505082518692600c92859290918291908401908083835b60208310611d6c5780518252601f199092019160209182019101611d4d565b6001836020036101000a038019825116818451168082178552505050505050905001915050908152602001604051809103902060000160016101000a815481600160a060020a030219169083600160a060020a03160217905550600d54600c826040518082805190602001908083835b60208310611dfb5780518252601f199092019160209182019101611ddc565b51815160209384036101000a6000190180199092169116179052920194855250604051938490030183206001908101949094555050600880548301905590546006547f8ce1b13f000000000000000000000000000000000000000000000000000000008352600160a060020a0390911691638ce1b13f91611e85918591899160149060040161273e565b600060405180830381600087803b158015611e9f57600080fd5b505af1158015611eb3573d6000803e3d6000fd5b505060019093019250611bd99050565b6008546007541015611eea5760405160e560020a62461bcd028152600401610493906127f4565b8751611efd9060029060208b0190611fb7565b508651611f119060049060208a0190611fb7565b506003805473ffffffffffffffffffffffffffffffffffffffff1916600160a060020a038816179055600685905560078490556009805467ffffffffffffffff191667ffffffffffffffff858116919091176fffffffffffffffff0000000000000000191668010000000000000000918516919091021790558051611f9d90600a906020840190611fb7565b505050505050505050565b600354600160a060020a031681565b828054600181600116156101000203166002900490600052602060002090601f016020900481019282601f10611ff857805160ff1916838001178555612025565b82800160010185558215612025579182015b8281111561202557825182559160200191906001019061200a565b50612031929150612035565b5090565b61204f91905b80821115612031576000815560010161203b565b90565b600061205e8235612920565b9392505050565b6000601f8201831361207657600080fd5b8135612089612084826128c7565b6128a0565b81815260209384019390925082018360005b838110156120c757813586016120b188826120d1565b845250602092830192919091019060010161209b565b5050505092915050565b6000601f820183136120e257600080fd5b81356120f0612084826128e8565b9150808252602083016020830185838301111561210c57600080fd5b612117838284612939565b50505092915050565b600061205e823561204f565b600061205e823561292c565b6000806040838503121561214b57600080fd5b60006121578585612052565b925050602083013567ffffffffffffffff81111561217457600080fd5b61218085828601612065565b9150509250929050565b60008060006060848603121561219f57600080fd5b60006121ab8686612052565b935050602084013567ffffffffffffffff8111156121c857600080fd5b6121d486828701612065565b92505060406121e586828701612120565b9150509250925092565b6000806040838503121561220257600080fd5b600061220e8585612052565b925050602083013567ffffffffffffffff81111561222b57600080fd5b612180858286016120d1565b60006020828403121561224957600080fd5b813567ffffffffffffffff81111561226057600080fd5b61226c84828501612065565b949350505050565b6000806040838503121561228757600080fd5b823567ffffffffffffffff81111561229e57600080fd5b6122aa85828601612065565b925050602061218085828601612120565b6000602082840312156122cd57600080fd5b813567ffffffffffffffff8111156122e457600080fd5b61226c848285016120d1565b600080600080600080600080610100898b03121561230d57600080fd5b883567ffffffffffffffff81111561232457600080fd5b6123308b828c016120d1565b985050602089013567ffffffffffffffff81111561234d57600080fd5b6123598b828c016120d1565b975050604061236a8b828c01612052565b965050606061237b8b828c01612120565b955050608061238c8b828c01612120565b94505060a061239d8b828c0161212c565b93505060c06123ae8b828c0161212c565b92505060e089013567ffffffffffffffff8111156123cb57600080fd5b6123d78b828c016120d1565b9150509295985092959890939650565b6000602082840312156123f957600080fd5b600061226c8484612120565b61240e81612920565b82525050565b600061241f8261291c565b808452612433816020860160208601612945565b61243c81612971565b9093016020019392505050565b6000815460018116600081146124665760018114612484576124c0565b60028204607f16855260ff19821660208601526040850192506124c0565b6002820480865260208601955061249a85612910565b60005b828110156124b95781548882015260019091019060200161249d565b8701945050505b505092915050565b601981527f746f74616c207469636b6574206e756d626572206572726f7200000000000000602082015260400190565b602681527f746869732075736572206973206e6f7420686f6c646572206f6620737563682060208201527f7469636b65740000000000000000000000000000000000000000000000000000604082015260600190565b601c81527f6f6e6c79207363656e69632063616e20636865636b207469636b657400000000602082015260400190565b602381527f6f6e6c792069737375657220636f6d70616e792063616e206d696e742074696360208201527f6b65740000000000000000000000000000000000000000000000000000000000604082015260600190565b601f81527f74686973207469636b657420697320756e61626c6520746f2061636365707400602082015260400190565b601c81527f74686973207469636b657420697320756e61626c6520746f2075736500000000602082015260400190565b601d81527f74686973207573657220697320756e61626c6520746f20616363706574000000602082015260400190565b601c81527f7468697320635469636b657420616c7265616479206d696e7474656400000000602082015260400190565b600e81527f6e6f207469636b6574206c656674000000000000000000000000000000000000602082015260400190565b61240e8161204f565b61240e8161292c565b602081016126e48284612405565b92915050565b604081016126f88285612405565b61205e60208301846126c4565b606081016127138286612405565b61272060208301856126c4565b61226c60408301846126c4565b6020808252810161205e8184612414565b6080808252810161274f8187612414565b905061275e6020830186612405565b61276b60408301856126c4565b818103606083015261277d8184612449565b9695505050505050565b60e08082528101612798818a612414565b90506127a76020830189612405565b6127b460408301886126c4565b6127c160608301876126c4565b6127ce60808301866126c4565b6127db60a08301856126cd565b6127e860c08301846126cd565b98975050505050505050565b602080825281016126e4816124c8565b602080825281016126e4816124f8565b602080825281016126e48161254e565b602080825281016126e48161257e565b602080825281016126e4816125d4565b602080825281016126e481612604565b602080825281016126e481612634565b602080825281016126e481612664565b602080825281016126e481612694565b602081016126e482846126c4565b602081016126e482846126cd565b60405181810167ffffffffffffffff811182821017156128bf57600080fd5b604052919050565b600067ffffffffffffffff8211156128de57600080fd5b5060209081020190565b600067ffffffffffffffff8211156128ff57600080fd5b506020601f91909101601f19160190565b60009081526020902090565b5190565b600160a060020a031690565b67ffffffffffffffff1690565b82818337506000910152565b60005b83811015612960578181015183820152602001612948565b8381111561068f5750506000910152565b601f01601f1916905600a265627a7a72305820158b3568ceb6cbb38d7184a2549e24f9fa407fc755844ee113582e1ae6c844596c6578706572696d656e74616cf50037a265627a7a72305820a9183cac5fc971d5bccffac91e986b23246d52dc4738c5d037bfd30cd199ac8b6c6578706572696d656e74616cf50037",
  "source": "pragma solidity >=0.4.21 <0.7.0;\r\npragma experimental ABIEncoderV2;\r\n\r\nimport \"./UserManager.sol\";\r\nimport \"./Ticket.sol\";\r\n\r\ncontract TicketManager {\r\n    address _admin;\r\n    address _ticketDataAddr;\r\n    UserManager private _userManager;\r\n    mapping(string=>address) _ticketAddrs;\r\n\r\n    event TicketIssue(address indexed companyAddr, address indexed ticketAddr, string ticketId);\r\n    event TicketMint(string ticketId, string[] cTicketId, address indexed userAddr);\r\n    event TicketTransfer(string[] cTicketId, address indexed fromUser, address indexed toUser, uint transferPrice);\r\n    event TicketCheck(string cTicketId, address indexed scenicAddr, address indexed userAddr);\r\n    \r\n    constructor(address userManagerAddr, address ticketDataAddr) public {\r\n        _admin = msg.sender;\r\n        _ticketDataAddr = ticketDataAddr;\r\n        _userManager = UserManager(userManagerAddr);\r\n    }\r\n\r\n    // issued ticket\r\n    function issueTicket(string scenicName, address scenicAddr, string ticketId, uint price, uint total, uint64 sDate, uint64 eDate, string memory comment) public {\r\n        bool _isIssuer = _userManager._checkUserExist(1, msg.sender);\r\n        require(_isIssuer,\"only issue company can issue Ticket\");\r\n        require((_ticketAddrs[ticketId] == address(0)), \"this Ticket already issued\");\r\n        string memory _issueCompanyName;\r\n        (_issueCompanyName,) = _userManager.getIssueCoInfo(msg.sender);\r\n        Ticket ticket = new Ticket(_issueCompanyName, scenicName, scenicAddr, ticketId, price, total, sDate, eDate, comment, _ticketDataAddr);\r\n        _userManager._issueTicket(msg.sender, ticketId);\r\n        _ticketAddrs[ticketId] = address(ticket);\r\n        emit TicketIssue(msg.sender,address(ticket),ticketId);\r\n    }\r\n\r\n    // update ticket\r\n    function updateTicket(string scenicName, address scenicAddr, string ticketId, uint price, uint total, uint64 sDate, uint64 eDate, string memory comment) public {\r\n        bool _isIssuer = _userManager._checkUserExist(1, msg.sender);\r\n        require(_isIssuer,\"only issue company can update Ticket\");\r\n        require((_ticketAddrs[ticketId] != address(0)), \"this Ticket is not issued\");\r\n        string memory _issueCompanyName;\r\n        (_issueCompanyName,) = _userManager.getIssueCoInfo(msg.sender);\r\n        Ticket ticket = Ticket(_ticketAddrs[ticketId]);\r\n        ticket._updateTicket(_issueCompanyName, scenicName, scenicAddr, price, total, sDate, eDate, comment);\r\n        emit TicketIssue(msg.sender,address(ticket),ticketId);\r\n    }\r\n\r\n\r\n    // mint ticket for user\r\n    function mintTicket(string ticketId, address userAddr, string[] cTicketIds) public {\r\n        require((_ticketAddrs[ticketId] != address(0)), \"this Ticket not issued\");\r\n        address _ticketAddr = _ticketAddrs[ticketId];\r\n        Ticket _ticket = Ticket(_ticketAddr);\r\n        _ticket._mintTicket(userAddr, cTicketIds);\r\n        _userManager._mintTicket(userAddr,ticketId,cTicketIds);\r\n        emit TicketMint(ticketId,cTicketIds,userAddr);\r\n    }\r\n    \r\n    function transferTicket(address toUser, string ticketId, string[] cTicketIds, uint transferPrice) public {\r\n        require((_ticketAddrs[ticketId] != address(0)), \"this Ticket not issued\");\r\n        address _ticketAddr = _ticketAddrs[ticketId];\r\n        Ticket _ticket = Ticket(_ticketAddr);\r\n        _ticket._transferTicket(toUser,cTicketIds,transferPrice);\r\n    }\r\n\r\n    function listTicket(string ticketId, string[] cTicketIds, uint transferPrice) public {\r\n        require((_ticketAddrs[ticketId] != address(0)), \"this Ticket not issued\");\r\n        address _ticketAddr = _ticketAddrs[ticketId];\r\n        Ticket _ticket = Ticket(_ticketAddr);\r\n        _ticket._listTicket(cTicketIds,transferPrice);\r\n    }\r\n    \r\n    function acceptTicket(string ticketId, string[] cTicketIds, uint state) public {\r\n        require((_ticketAddrs[ticketId] != address(0)), \"this Ticket not issued\");\r\n        address _ticketAddr = _ticketAddrs[ticketId];\r\n        Ticket _ticket = Ticket(_ticketAddr);\r\n        address _toUser = msg.sender;\r\n        address _fromUser;\r\n        (_fromUser,) =  _ticket._getcTicketInfo(cTicketIds[0]);\r\n        (,uint256 transferPrice,) =  _ticket._getcTicketTransferInfo(cTicketIds[0]);\r\n        _ticket._acceptTicket(cTicketIds,state);\r\n        if(state == 0){\r\n            _userManager._acceptTicket(_fromUser,_toUser,cTicketIds,transferPrice);\r\n            emit TicketTransfer(cTicketIds,_fromUser,_toUser,transferPrice);\r\n        }\r\n    }\r\n\r\n    function buyTicketFromMarket(string ticketId, string[] cTicketIds) public {\r\n        require((_ticketAddrs[ticketId] != address(0)), \"this Ticket not issued\");\r\n        address _ticketAddr = _ticketAddrs[ticketId];\r\n        Ticket _ticket = Ticket(_ticketAddr);\r\n        address _toUser = msg.sender;\r\n        address _fromUser;\r\n        (_fromUser,) =  _ticket._getcTicketInfo(cTicketIds[0]);\r\n        (,uint256 transferPrice,) =  _ticket._getcTicketTransferInfo(cTicketIds[0]);\r\n        _ticket._buyTicketFromMarket(cTicketIds);\r\n        _userManager._acceptTicket(_fromUser,_toUser,cTicketIds,transferPrice);\r\n        emit TicketTransfer(cTicketIds,_fromUser,_toUser,transferPrice);\r\n    }\r\n\r\n\r\n    function cancelSoldTicket(string ticketId, string[] cTicketIds) public {\r\n        require((_ticketAddrs[ticketId] != address(0)), \"this Ticket not issued\");\r\n        address _ticketAddr = _ticketAddrs[ticketId];\r\n        Ticket _ticket = Ticket(_ticketAddr);\r\n        _ticket._cancelSoldTicket(cTicketIds);\r\n    }\r\n\r\n    \r\n    function checkcTicket(address userAddr, string ticketId, string cTicketId) public {\r\n        require((_ticketAddrs[ticketId] != address(0)), \"this Ticket not issued\");\r\n        address _ticketAddr = _ticketAddrs[ticketId];\r\n        Ticket _ticket = Ticket(_ticketAddr);\r\n        _ticket._checkcTicket(userAddr,cTicketId);\r\n        _userManager._checkcTicket(cTicketId, userAddr);\r\n        emit TicketCheck(cTicketId,msg.sender,userAddr);\r\n    }\r\n    \r\n    // get ticket info\r\n    function getTicketInfo(string ticketId) public view returns(string memory issuer, address scenicAddr, uint price, uint total, uint issued, uint64 sDate, uint64 eDate) {\r\n        address ticketAddr = _ticketAddrs[ticketId];\r\n        Ticket _ticket = Ticket(ticketAddr);\r\n        (issuer,scenicAddr,price,total,issued,sDate,eDate) = _ticket._getTicketInfo();\r\n    }\r\n    \r\n    // get child ticket info\r\n    function getcTicketInfo(string ticketId, string cTicketId) public view returns(address holder, uint state, address toUser, uint transferPrice, uint transferState) {\r\n        address ticketAddr = _ticketAddrs[ticketId];\r\n        Ticket _ticket = Ticket(ticketAddr);\r\n        (holder,state) = _ticket._getcTicketInfo(cTicketId);\r\n        (toUser,transferPrice,transferState) = _ticket._getcTicketTransferInfo(cTicketId);\r\n    }\r\n\r\n    // get ticket address\r\n    function getTicketAddr(string ticketId) public view returns(address ticketAddr) {\r\n        ticketAddr = _ticketAddrs[ticketId];\r\n    }\r\n}",
  "sourcePath": "D:\\GRGChainWork\\02_Project_TicketChain\\TicketContract\\bare-box\\contracts\\TicketManager.sol",
  "compiler": {
    "name": "solc",
    "version": "0.4.26+commit.4563c3fc.Emscripten.clang"
  },
  "schemaVersion": "3.2.0",
  "updatedAt": "2020-11-12T00:39:51.963Z",
  "networkType": "ethereum",
  "devdoc": {
    "methods": {}
  },
  "userdoc": {
    "methods": {}
  }
}