{
  "contractName": "TicketData",
  "abi": [
    {
      "inputs": [],
      "payable": false,
      "stateMutability": "nonpayable",
      "type": "constructor"
    },
    {
      "anonymous": false,
      "inputs": [
        {
          "indexed": false,
          "name": "cTicketId",
          "type": "string"
        },
        {
          "indexed": true,
          "name": "holder",
          "type": "address"
        },
        {
          "indexed": false,
          "name": "price",
          "type": "uint256"
        },
        {
          "indexed": false,
          "name": "state",
          "type": "string"
        },
        {
          "indexed": true,
          "name": "indexcTicketId",
          "type": "string"
        }
      ],
      "name": "TicketTrace",
      "type": "event"
    },
    {
      "constant": false,
      "inputs": [
        {
          "name": "cTicketId",
          "type": "string"
        },
        {
          "name": "holder",
          "type": "address"
        },
        {
          "name": "price",
          "type": "uint256"
        },
        {
          "name": "state",
          "type": "string"
        }
      ],
      "name": "_TicketTrace",
      "outputs": [],
      "payable": false,
      "stateMutability": "nonpayable",
      "type": "function"
    }
  ],
  "bytecode": "0x608060405234801561001057600080fd5b5060008054600160a060020a031916321790556102af806100326000396000f3006080604052600436106100405763ffffffff7c01000000000000000000000000000000000000000000000000000000006000350416638ce1b13f8114610045575b600080fd5b34801561005157600080fd5b506040805160206004803580820135601f81018490048402850184019095528484526100ff94369492936024939284019190819084018382808284375050604080516020888301358a018035601f8101839004830284018301909452838352979a893573ffffffffffffffffffffffffffffffffffffffff169a8a8301359a919990985060609091019650919450908101925081908401838280828437509497506101019650505050505050565b005b836040518082805190602001908083835b602083106101315780518252601f199092019160209182019101610112565b6001836020036101000a03801982511681845116808217855250505050505090500191505060405180910390208373ffffffffffffffffffffffffffffffffffffffff167f6b4926079ee2b43ec3466f3973630b61f90a644d77e55cccd2b141c09275272e868585604051808060200184815260200180602001838103835286818151815260200191508051906020019080838360005b838110156101e05781810151838201526020016101c8565b50505050905090810190601f16801561020d5780820380516001836020036101000a031916815260200191505b50838103825284518152845160209182019186019080838360005b83811015610240578181015183820152602001610228565b50505050905090810190601f16801561026d5780820380516001836020036101000a031916815260200191505b509550505050505060405180910390a3505050505600a165627a7a723058201618d5e798dc06f8d6c4c3aa8423262f95736991f434843ca60e0ece89caefd50029",
  "source": "pragma solidity >=0.4.21 <0.7.0;\r\n\r\ncontract TicketData {\r\n    address private _admin;\r\n    event TicketTrace(string cTicketId, address indexed holder, uint256 price, string state, string indexed indexcTicketId);\r\n\r\n    constructor() public\r\n    {\r\n        _admin = tx.origin;\r\n    }\r\n    \r\n    function _TicketTrace(string cTicketId, address holder, uint256 price, string state) public {\r\n        emit TicketTrace(cTicketId, holder, price, state, cTicketId);\r\n    }\r\n}",
  "sourcePath": "D:\\GRGChainWork\\02_Project_TicketChain\\TicketContract\\bare-box\\contracts\\TicketData.sol",
  "compiler": {
    "name": "solc",
    "version": "0.4.26+commit.4563c3fc.Emscripten.clang"
  },
  "schemaVersion": "3.2.0",
  "updatedAt": "2020-11-12T00:39:51.973Z",
  "networkType": "ethereum",
  "devdoc": {
    "methods": {}
  },
  "userdoc": {
    "methods": {}
  }
}