{
  "contractName": "UserManager",
  "abi": [
    {
      "constant": true,
      "inputs": [
        {
          "name": "",
          "type": "address"
        }
      ],
      "name": "_issueCompanylist",
      "outputs": [
        {
          "name": "addr",
          "type": "address"
        },
        {
          "name": "name",
          "type": "string"
        }
      ],
      "payable": false,
      "stateMutability": "view",
      "type": "function"
    },
    {
      "constant": true,
      "inputs": [
        {
          "name": "",
          "type": "address"
        }
      ],
      "name": "_userlist",
      "outputs": [
        {
          "name": "addr",
          "type": "address"
        },
        {
          "name": "name",
          "type": "string"
        },
        {
          "name": "balance",
          "type": "uint256"
        }
      ],
      "payable": false,
      "stateMutability": "view",
      "type": "function"
    },
    {
      "constant": true,
      "inputs": [
        {
          "name": "",
          "type": "address"
        }
      ],
      "name": "_sceniclist",
      "outputs": [
        {
          "name": "addr",
          "type": "address"
        },
        {
          "name": "name",
          "type": "string"
        },
        {
          "name": "issueCompany",
          "type": "string"
        },
        {
          "name": "state",
          "type": "uint256"
        }
      ],
      "payable": false,
      "stateMutability": "view",
      "type": "function"
    },
    {
      "inputs": [],
      "payable": false,
      "stateMutability": "nonpayable",
      "type": "constructor"
    },
    {
      "anonymous": false,
      "inputs": [
        {
          "indexed": true,
          "name": "userAddr",
          "type": "address"
        },
        {
          "indexed": true,
          "name": "types",
          "type": "uint256"
        },
        {
          "indexed": false,
          "name": "name",
          "type": "string"
        }
      ],
      "name": "Register",
      "type": "event"
    },
    {
      "constant": false,
      "inputs": [
        {
          "name": "name",
          "type": "string"
        },
        {
          "name": "types",
          "type": "uint256"
        }
      ],
      "name": "userRegister",
      "outputs": [],
      "payable": false,
      "stateMutability": "nonpayable",
      "type": "function"
    },
    {
      "constant": true,
      "inputs": [
        {
          "name": "addr",
          "type": "address"
        }
      ],
      "name": "getUserInfo",
      "outputs": [
        {
          "name": "name",
          "type": "string"
        },
        {
          "name": "mintTickets",
          "type": "string[]"
        },
        {
          "name": "usedTickets",
          "type": "string[]"
        },
        {
          "name": "soldTickets",
          "type": "string[]"
        },
        {
          "name": "balance",
          "type": "uint256"
        }
      ],
      "payable": false,
      "stateMutability": "view",
      "type": "function"
    },
    {
      "constant": true,
      "inputs": [
        {
          "name": "addr",
          "type": "address"
        }
      ],
      "name": "getIssueCoInfo",
      "outputs": [
        {
          "name": "name",
          "type": "string"
        },
        {
          "name": "scenicTickets",
          "type": "string[]"
        }
      ],
      "payable": false,
      "stateMutability": "view",
      "type": "function"
    },
    {
      "constant": true,
      "inputs": [
        {
          "name": "addr",
          "type": "address"
        },
        {
          "name": "sceincTicketName",
          "type": "string"
        }
      ],
      "name": "getIssuedTicketInfo",
      "outputs": [
        {
          "name": "issuedTickets",
          "type": "string[]"
        }
      ],
      "payable": false,
      "stateMutability": "view",
      "type": "function"
    },
    {
      "constant": true,
      "inputs": [
        {
          "name": "addr",
          "type": "address"
        }
      ],
      "name": "getScenicInfo",
      "outputs": [
        {
          "name": "name",
          "type": "string"
        },
        {
          "name": "checkedTickets",
          "type": "string[]"
        }
      ],
      "payable": false,
      "stateMutability": "view",
      "type": "function"
    },
    {
      "constant": false,
      "inputs": [],
      "name": "drawBalance",
      "outputs": [],
      "payable": false,
      "stateMutability": "nonpayable",
      "type": "function"
    },
    {
      "constant": false,
      "inputs": [
        {
          "name": "companyAddr",
          "type": "address"
        },
        {
          "name": "ticketId",
          "type": "string"
        }
      ],
      "name": "_issueTicket",
      "outputs": [],
      "payable": false,
      "stateMutability": "nonpayable",
      "type": "function"
    },
    {
      "constant": false,
      "inputs": [
        {
          "name": "userAddr",
          "type": "address"
        },
        {
          "name": "ticketId",
          "type": "string"
        },
        {
          "name": "cTicketIds",
          "type": "string[]"
        }
      ],
      "name": "_mintTicket",
      "outputs": [],
      "payable": false,
      "stateMutability": "nonpayable",
      "type": "function"
    },
    {
      "constant": false,
      "inputs": [
        {
          "name": "fromUser",
          "type": "address"
        },
        {
          "name": "toUser",
          "type": "address"
        },
        {
          "name": "cTicketIds",
          "type": "string[]"
        },
        {
          "name": "transferPrice",
          "type": "uint256"
        }
      ],
      "name": "_acceptTicket",
      "outputs": [],
      "payable": false,
      "stateMutability": "nonpayable",
      "type": "function"
    },
    {
      "constant": false,
      "inputs": [
        {
          "name": "cTicketId",
          "type": "string"
        },
        {
          "name": "userAddr",
          "type": "address"
        }
      ],
      "name": "_checkcTicket",
      "outputs": [],
      "payable": false,
      "stateMutability": "nonpayable",
      "type": "function"
    },
    {
      "constant": true,
      "inputs": [
        {
          "name": "types",
          "type": "uint256"
        },
        {
          "name": "addr",
          "type": "address"
        }
      ],
      "name": "_checkUserExist",
      "outputs": [
        {
          "name": "",
          "type": "bool"
        }
      ],
      "payable": false,
      "stateMutability": "view",
      "type": "function"
    }
  ],
  "bytecode": "0x608060405260006004556001600555600260065534801561001f57600080fd5b5060008054600160a060020a031916331790556120fd806100416000396000f3006080604052600436106100cf5763ffffffff7c01000000000000000000000000000000000000000000000000000000006000350416633b46447281146100d457806343c51d0c146100f65780634afc06b1146101165780635da91b831461014d5780636386c1c71461017a578063701251a5146101ab5780637e6391c6146101da578063896845cf1461020a57806391d2d49914610237578063bdb0708a1461024c578063c385a2221461027a578063dc1cc4601461029a578063e48da736146102ba578063eab84dc9146102da575b600080fd5b3480156100e057600080fd5b506100f46100ef366004611ba8565b6102fa565b005b34801561010257600080fd5b506100f4610111366004611cf0565b6103ca565b34801561012257600080fd5b50610136610131366004611b82565b610449565b604051610144929190611e8a565b60405180910390f35b34801561015957600080fd5b5061016d610168366004611c21565b6104fa565b6040516101449190611f25565b34801561018657600080fd5b5061019a610195366004611b82565b610650565b604051610144959493929190611f80565b3480156101b757600080fd5b506101cb6101c6366004611b82565b610991565b60405161014493929190611ef6565b3480156101e657600080fd5b506101fa6101f5366004611b82565b610a4a565b6040516101449493929190611eaa565b34801561021657600080fd5b5061022a610225366004611d7e565b610b96565b6040516101449190611f36565b34801561024357600080fd5b506100f4611327565b34801561025857600080fd5b5061026c610267366004611b82565b61133c565b604051610144929190611f5b565b34801561028657600080fd5b506100f4610295366004611c21565b611500565b3480156102a657600080fd5b506100f46102b5366004611d37565b611541565b3480156102c657600080fd5b506100f46102d5366004611c73565b6116bb565b3480156102e657600080fd5b5061026c6102f5366004611b82565b6117e6565b600160a060020a0380851660009081526001602052604080822092861682528120905b84518110156103b45781600301858281518110151561033857fe5b602090810290910181015182546001810180855560009485529383902082516103679491909201920190611973565b505082600401858281518110151561037b57fe5b602090810290910181015182546001810180855560009485529383902082516103aa9491909201920190611973565b505060010161031d565b5050915160029092018054919092020190555050565b326000908152600360209081526040822060040180546001810180835591845292829020855191936104029391019190860190611973565b5050600160a060020a038116600090815260016020818152604083206005018054928301808255908452928190208551610443939190910191860190611973565b50505050565b6002602081815260009283526040928390208054600180830180548751601f60001994831615610100029490940190911696909604918201859004850286018501909652808552600160a060020a03909116949193928301828280156104f05780601f106104c5576101008083540402835291602001916104f0565b820191906000526020600020905b8154815290600101906020018083116104d357829003601f168201915b5050505050905082565b60606002600084600160a060020a0316600160a060020a03168152602001908152602001600020600301826040518082805190602001908083835b602083106105545780518252601f199092019160209182019101610535565b51815160209384036101000a60001901801990921691161790529201948552506040805194859003820185208054808402870184019092528186529350915060009084015b828210156106445760008481526020908190208301805460408051601f60026000196101006001871615020190941693909304928301859004850281018501909152818152928301828280156106305780601f1061060557610100808354040283529160200191610630565b820191906000526020600020905b81548152906001019060200180831161061357829003601f168201915b505050505081526020019060010190610599565b50505050905092915050565b600160a060020a038116600090815260016020818152604080842080840180548351600296821615610100026000190190911695909504601f81018590048502860185019093528285526060958695869586959294939192908301828280156106fa5780601f106106cf576101008083540402835291602001916106fa565b820191906000526020600020905b8154815290600101906020018083116106dd57829003601f168201915b5050505050955080600301805480602002602001604051908101604052809291908181526020016000905b828210156107d05760008481526020908190208301805460408051601f60026000196101006001871615020190941693909304928301859004850281018501909152818152928301828280156107bc5780601f10610791576101008083540402835291602001916107bc565b820191906000526020600020905b81548152906001019060200180831161079f57829003601f168201915b505050505081526020019060010190610725565b50505050945080600501805480602002602001604051908101604052809291908181526020016000905b828210156108a55760008481526020908190208301805460408051601f60026000196101006001871615020190941693909304928301859004850281018501909152818152928301828280156108915780601f1061086657610100808354040283529160200191610891565b820191906000526020600020905b81548152906001019060200180831161087457829003601f168201915b5050505050815260200190600101906107fa565b50505050935080600401805480602002602001604051908101604052809291908181526020016000905b8282101561097a5760008481526020908190208301805460408051601f60026000196101006001871615020190941693909304928301859004850281018501909152818152928301828280156109665780601f1061093b57610100808354040283529160200191610966565b820191906000526020600020905b81548152906001019060200180831161094957829003601f168201915b5050505050815260200190600101906108cf565b505050509250806002015491505091939590929450565b600160208181526000928352604092839020805481840180548651600261010097831615979097026000190190911695909504601f8101859004850286018501909652858552600160a060020a0390911694919392909190830182828015610a3a5780601f10610a0f57610100808354040283529160200191610a3a565b820191906000526020600020905b815481529060010190602001808311610a1d57829003601f168201915b5050505050908060020154905083565b6003602090815260009182526040918290208054600180830180548651600261010094831615949094026000190190911692909204601f8101869004860283018601909652858252600160a060020a03909216949293909290830182828015610af45780601f10610ac957610100808354040283529160200191610af4565b820191906000526020600020905b815481529060010190602001808311610ad757829003601f168201915b50505060028085018054604080516020601f6000196101006001871615020190941695909504928301859004850281018501909152818152959695945090925090830182828015610b865780601f10610b5b57610100808354040283529160200191610b86565b820191906000526020600020905b815481529060010190602001808311610b6957829003601f168201915b5050505050908060030154905084565b600080610ba16119f1565b610ba9611a31565b610bb1611a5c565b600454871415610f1257600160a060020a03868116600090815260016020818152604092839020835160c0810185528154909516855280830180548551600261010096831615969096026000190190911694909404601f810184900484028501840190955284845290938583019392830182828015610c715780601f10610c4657610100808354040283529160200191610c71565b820191906000526020600020905b815481529060010190602001808311610c5457829003601f168201915b505050505081526020016002820154815260200160038201805480602002602001604051908101604052809291908181526020016000905b82821015610d545760008481526020908190208301805460408051601f6002600019610100600187161502019094169390930492830185900485028101850190915281815292830182828015610d405780601f10610d1557610100808354040283529160200191610d40565b820191906000526020600020905b815481529060010190602001808311610d2357829003601f168201915b505050505081526020019060010190610ca9565b50505050815260200160048201805480602002602001604051908101604052809291908181526020016000905b82821015610e2c5760008481526020908190208301805460408051601f6002600019610100600187161502019094169390930492830185900485028101850190915281815292830182828015610e185780601f10610ded57610100808354040283529160200191610e18565b820191906000526020600020905b815481529060010190602001808311610dfb57829003601f168201915b505050505081526020019060010190610d81565b50505050815260200160058201805480602002602001604051908101604052809291908181526020016000905b82821015610f045760008481526020908190208301805460408051601f6002600019610100600187161502019094169390930492830185900485028101850190915281815292830182828015610ef05780601f10610ec557610100808354040283529160200191610ef0565b820191906000526020600020905b815481529060010190602001808311610ed357829003601f168201915b505050505081526020019060010190610e59565b505050915250508051945092505b6005548714156110b857600160a060020a038681166000908152600260208181526040928390208351606081018552815490951685526001808201805486516101009382161593909302600019011694909404601f81018490048402820184019095528481529093858301939192830182828015610fd15780601f10610fa657610100808354040283529160200191610fd1565b820191906000526020600020905b815481529060010190602001808311610fb457829003601f168201915b5050505050815260200160028201805480602002602001604051908101604052809291908181526020016000905b828210156110aa5760008481526020908190208301805460408051601f60026000196101006001871615020190941693909304928301859004850281018501909152818152928301828280156110965780601f1061106b57610100808354040283529160200191611096565b820191906000526020600020905b81548152906001019060200180831161107957829003601f168201915b505050505081526020019060010190610fff565b505050915250508051945091505b6006548714156112ff57600160a060020a03868116600090815260036020908152604091829020825160a08101845281549094168452600180820180548551600261010094831615949094026000190190911692909204601f810185900485028301850190955284825291938584019391929183018282801561117c5780601f106111515761010080835404028352916020019161117c565b820191906000526020600020905b81548152906001019060200180831161115f57829003601f168201915b5050509183525050600282810180546040805160206001841615610100026000190190931694909404601f8101839004830285018301909152808452938101939083018282801561120e5780601f106111e35761010080835404028352916020019161120e565b820191906000526020600020905b8154815290600101906020018083116111f157829003601f168201915b505050505081526020016003820154815260200160048201805480602002602001604051908101604052809291908181526020016000905b828210156112f15760008481526020908190208301805460408051601f60026000196101006001871615020190941693909304928301859004850281018501909152818152928301828280156112dd5780601f106112b2576101008083540402835291602001916112dd565b820191906000526020600020905b8154815290600101906020018083116112c057829003601f168201915b505050505081526020019060010190611246565b505050915250508051945090505b600160a060020a0384161515611318576000945061131d565b600194505b5050505092915050565b33600090815260016020526040812060020155565b6060806002600084600160a060020a0316600160a060020a031681526020019081526020016000206001018054600181600116156101000203166002900480601f0160208091040260200160405190810160405280929190818152602001828054600181600116156101000203166002900480156113fb5780601f106113d0576101008083540402835291602001916113fb565b820191906000526020600020905b8154815290600101906020018083116113de57829003601f168201915b505050505091506002600084600160a060020a0316600160a060020a03168152602001908152602001600020600201805480602002602001604051908101604052809291908181526020016000905b828210156114f55760008481526020908190208301805460408051601f60026000196101006001871615020190941693909304928301859004850281018501909152818152928301828280156114e15780601f106114b6576101008083540402835291602001916114e1565b820191906000526020600020905b8154815290600101906020018083116114c457829003601f168201915b50505050508152602001906001019061144a565b505050509050915091565b600160a060020a0382166000908152600260208181526040832090910180546001810180835591845292829020845191936104439391019190850190611973565b61154b8133610b96565b1561158b576040517f08c379a000000000000000000000000000000000000000000000000000000000815260040161158290611fe6565b60405180910390fd5b6004548114156115d957336000818152600160208181526040909220805473ffffffffffffffffffffffffffffffffffffffff1916909317835584516115d79390910191850190611973565b505b60055481141561162757336000818152600260209081526040909120805473ffffffffffffffffffffffffffffffffffffffff1916909217825583516116259260010191850190611973565b505b60065481141561167557336000818152600360209081526040909120805473ffffffffffffffffffffffffffffffffffffffff1916909217825583516116739260010191850190611973565b505b8033600160a060020a03167ffd7cce4ad4056ce11f491575da172369a8731f4cd81ef1eedb704c7e304f19cc846040516116af9190611f4a565b60405180910390a35050565b600060605b82518210156117df5782828151811015156116d757fe5b6020908102909101810151600160a060020a03871660009081526001808452604082206003018054918201808255908352918490208351939550919361172593929091019190850190611973565b50506002600032600160a060020a0316600160a060020a03168152602001908152602001600020600301846040518082805190602001908083835b6020831061177f5780518252601f199092019160209182019101611760565b51815160209384036101000a6000190180199092169116179052920194855250604051938490038101909320805460018101808355600092835291859020865192956117d2955091019250850190611973565b50506001909101906116c0565b5050505050565b600160a060020a038116600090815260036020908152604091829020600190810180548451600293821615610100026000190190911692909204601f810184900484028301840190945283825260609384938301828280156118895780601f1061185e57610100808354040283529160200191611889565b820191906000526020600020905b81548152906001019060200180831161186c57829003601f168201915b505050600160a060020a038616600090815260036020908152604080832060040180548251818502810185019093528083529698509095909450925084015b828210156114f55760008481526020908190208301805460408051601f600260001961010060018716150201909416939093049283018590048502810185019091528181529283018282801561195f5780601f106119345761010080835404028352916020019161195f565b820191906000526020600020905b81548152906001019060200180831161194257829003601f168201915b5050505050815260200190600101906118c8565b828054600181600116156101000203166002900490600052602060002090601f016020900481019282601f106119b457805160ff19168380011785556119e1565b828001600101855582156119e1579182015b828111156119e15782518255916020019190600101906119c6565b506119ed929150611a95565b5090565b60c0604051908101604052806000600160a060020a0316815260200160608152602001600081526020016060815260200160608152602001606081525090565b6060604051908101604052806000600160a060020a0316815260200160608152602001606081525090565b60a0604051908101604052806000600160a060020a03168152602001606081526020016060815260200160008152602001606081525090565b611aaf91905b808211156119ed5760008155600101611a9b565b90565b6000611abe8235612070565b9392505050565b6000601f82018313611ad657600080fd5b8135611ae9611ae48261201d565b611ff6565b81815260209384019390925082018360005b8381101561131d5781358601611b118882611b27565b8452506020928301929190910190600101611afb565b6000601f82018313611b3857600080fd5b8135611b46611ae48261203e565b91508082526020830160208301858383011115611b6257600080fd5b611b6d838284612081565b50505092915050565b6000611abe8235611aaf565b600060208284031215611b9457600080fd5b6000611ba08484611ab2565b949350505050565b60008060008060808587031215611bbe57600080fd5b6000611bca8787611ab2565b9450506020611bdb87828801611ab2565b935050604085013567ffffffffffffffff811115611bf857600080fd5b611c0487828801611ac5565b9250506060611c1587828801611b76565b91505092959194509250565b60008060408385031215611c3457600080fd5b6000611c408585611ab2565b925050602083013567ffffffffffffffff811115611c5d57600080fd5b611c6985828601611b27565b9150509250929050565b600080600060608486031215611c8857600080fd5b6000611c948686611ab2565b935050602084013567ffffffffffffffff811115611cb157600080fd5b611cbd86828701611b27565b925050604084013567ffffffffffffffff811115611cda57600080fd5b611ce686828701611ac5565b9150509250925092565b60008060408385031215611d0357600080fd5b823567ffffffffffffffff811115611d1a57600080fd5b611d2685828601611b27565b9250506020611c6985828601611ab2565b60008060408385031215611d4a57600080fd5b823567ffffffffffffffff811115611d6157600080fd5b611d6d85828601611b27565b9250506020611c6985828601611b76565b60008060408385031215611d9157600080fd5b6000611d268585611b76565b611da681612070565b82525050565b6000611db78261206c565b80845260208401935083602082028501611dd085612066565b60005b84811015611e07578383038852611deb838351611e1c565b9250611df682612066565b602098909801979150600101611dd3565b50909695505050505050565b611da68161207c565b6000611e278261206c565b808452611e3b81602086016020860161208d565b611e44816120b9565b9093016020019392505050565b601581527f7573657220616c72656164792072656769737465640000000000000000000000602082015260400190565b611da681611aaf565b60408101611e988285611d9d565b8181036020830152611ba08184611e1c565b60808101611eb88287611d9d565b8181036020830152611eca8186611e1c565b90508181036040830152611ede8185611e1c565b9050611eed6060830184611e81565b95945050505050565b60608101611f048286611d9d565b8181036020830152611f168185611e1c565b9050611ba06040830184611e81565b60208082528101611abe8184611dac565b60208101611f448284611e13565b92915050565b60208082528101611abe8184611e1c565b60408082528101611f6c8185611e1c565b90508181036020830152611ba08184611dac565b60a08082528101611f918188611e1c565b90508181036020830152611fa58187611dac565b90508181036040830152611fb98186611dac565b90508181036060830152611fcd8185611dac565b9050611fdc6080830184611e81565b9695505050505050565b60208082528101611f4481611e51565b60405181810167ffffffffffffffff8111828210171561201557600080fd5b604052919050565b600067ffffffffffffffff82111561203457600080fd5b5060209081020190565b600067ffffffffffffffff82111561205557600080fd5b506020601f91909101601f19160190565b60200190565b5190565b600160a060020a031690565b151590565b82818337506000910152565b60005b838110156120a8578181015183820152602001612090565b838111156104435750506000910152565b601f01601f1916905600a265627a7a72305820713f0227a3459f4361365dcaeae94c3e715e258a896e6fb7170e01c779c116816c6578706572696d656e74616cf50037",
  "source": "pragma solidity >=0.4.21 <0.7.0;\r\npragma experimental ABIEncoderV2;\r\n\r\ncontract UserManager {\r\n\r\n    address private _admin;\r\n    mapping(address => User) public _userlist;\r\n    mapping(address => IssueCompany) public _issueCompanylist;\r\n    mapping(address => Scenic) public _sceniclist;\r\n\r\n    event Register(address indexed userAddr, uint indexed types, string name);\r\n    \r\n    uint ROLE_USER = 0;\r\n    uint ROLE_ISSUER = 1;\r\n    uint ROLE_SCENIC = 2;\r\n\r\n    struct User {\r\n        address addr;\r\n        string name;\r\n        uint256 balance;\r\n        string[] mintTickets;\r\n        string[] soldTickets;\r\n        string[] usedTickets;\r\n    }\r\n\r\n    struct IssueCompany {\r\n        address addr;\r\n        string name;\r\n        string[] scenicTickets;                      // root ticket\r\n        mapping(string => string[]) issuedTickets;   // child ticket of root ticket\r\n    }\r\n\r\n    struct Scenic {\r\n        address addr;\r\n        string name;\r\n        string issueCompany;\r\n        uint state;\r\n        string[] checkedTickets;\r\n    }\r\n\r\n    constructor() public {\r\n        _admin = msg.sender;\r\n    }\r\n\r\n    function userRegister(string memory name, uint types) public {\r\n        require(!_checkUserExist(types,msg.sender),\"user already registed\");\r\n        if(types == ROLE_USER){\r\n            _userlist[msg.sender].addr = msg.sender;\r\n            _userlist[msg.sender].name = name;\r\n        }\r\n        if(types == ROLE_ISSUER){\r\n            _issueCompanylist[msg.sender].addr = msg.sender;\r\n            _issueCompanylist[msg.sender].name = name;\r\n        }\r\n        if (types == ROLE_SCENIC){\r\n            _sceniclist[msg.sender].addr = msg.sender;\r\n            _sceniclist[msg.sender].name = name;\r\n        }\r\n        emit Register(msg.sender,types,name);\r\n    }\r\n    \r\n    function getUserInfo(address addr) public view returns (string name, string[] mintTickets, string[] usedTickets, string[] soldTickets, uint256 balance) {\r\n        User storage _user = _userlist[addr];\r\n        name = _user.name;\r\n        mintTickets = _user.mintTickets;\r\n        usedTickets = _user.usedTickets;\r\n        soldTickets = _user.soldTickets;\r\n        balance = _user.balance;\r\n    } \r\n    \r\n    function getIssueCoInfo(address addr) public view returns (string name, string[] scenicTickets) {\r\n        name = _issueCompanylist[addr].name;\r\n        scenicTickets = _issueCompanylist[addr].scenicTickets;\r\n    } \r\n    \r\n    function getIssuedTicketInfo(address addr, string sceincTicketName) public view returns (string[] issuedTickets) {\r\n        issuedTickets = _issueCompanylist[addr].issuedTickets[sceincTicketName];\r\n    } \r\n\r\n    function getScenicInfo(address addr) public view returns (string name, string[] checkedTickets) {\r\n        name = _sceniclist[addr].name;\r\n        checkedTickets = _sceniclist[addr].checkedTickets;\r\n    }\r\n\r\n    function drawBalance() public {\r\n        _userlist[msg.sender].balance = 0;\r\n    }\r\n    \r\n    function _issueTicket(address companyAddr, string ticketId) public {\r\n        _issueCompanylist[companyAddr].scenicTickets.push(ticketId);\r\n    }\r\n    \r\n    function _mintTicket(address userAddr, string ticketId, string[] cTicketIds) public {\r\n        for( uint i=0; i < cTicketIds.length; i++){\r\n            string memory cTicketId = cTicketIds[i];\r\n            _userlist[userAddr].mintTickets.push(cTicketId);\r\n            _issueCompanylist[tx.origin].issuedTickets[ticketId].push(cTicketId);\r\n        }\r\n    }\r\n    \r\n    function _acceptTicket(address fromUser, address toUser, string[] cTicketIds, uint transferPrice) public {\r\n        User storage _fromUser = _userlist[fromUser];\r\n        User storage _toUser = _userlist[toUser];\r\n        for(uint j=0; j < cTicketIds.length; j++){\r\n            _toUser.mintTickets.push(cTicketIds[j]);\r\n            _fromUser.soldTickets.push(cTicketIds[j]);\r\n        }\r\n        _fromUser.balance += transferPrice*cTicketIds.length;\r\n    }\r\n\r\n    function _checkcTicket(string cTicketId, address userAddr) public {\r\n        _sceniclist[tx.origin].checkedTickets.push(cTicketId);\r\n        _userlist[userAddr].usedTickets.push(cTicketId);\r\n    }\r\n\r\n    function _checkUserExist(uint types,address addr) public view returns (bool) {\r\n        address _addr;\r\n        if(types == ROLE_USER){\r\n            User memory _user = _userlist[addr];\r\n            _addr = _user.addr;\r\n        }\r\n        if(types == ROLE_ISSUER){\r\n            IssueCompany memory _issueCompany = _issueCompanylist[addr];\r\n            _addr = _issueCompany.addr;\r\n\r\n        }\r\n        if(types == ROLE_SCENIC){\r\n            Scenic memory _scenic = _sceniclist[addr];\r\n            _addr = _scenic.addr;\r\n        }\r\n        if(_addr == address(0)){\r\n            return false;\r\n        }else {\r\n            return true;\r\n        }\r\n    }\r\n}",
  "sourcePath": "D:\\GRGChainWork\\02_Project_TicketChain\\TicketContract\\bare-box\\contracts\\UserManager.sol",
  "compiler": {
    "name": "solc",
    "version": "0.4.26+commit.4563c3fc.Emscripten.clang"
  },
  "schemaVersion": "3.2.0",
  "updatedAt": "2020-11-12T00:39:51.949Z",
  "networkType": "ethereum",
  "devdoc": {
    "methods": {}
  },
  "userdoc": {
    "methods": {}
  }
}